{
    "abi": [
        {
            "type": "constructor",
            "inputs": [
                {
                    "name": "_pharmacyIdentifier",
                    "type": "string",
                    "internalType": "string"
                }
            ],
            "stateMutability": "nonpayable"
        },
        {
            "type": "function",
            "name": "addDoctor",
            "inputs": [
                {
                    "name": "doctor",
                    "type": "address",
                    "internalType": "address"
                }
            ],
            "outputs": [],
            "stateMutability": "nonpayable"
        },
        {
            "type": "function",
            "name": "addPharmacist",
            "inputs": [
                {
                    "name": "pharmacist",
                    "type": "address",
                    "internalType": "address"
                }
            ],
            "outputs": [],
            "stateMutability": "nonpayable"
        },
        {
            "type": "function",
            "name": "approvePrescription",
            "inputs": [
                {
                    "name": "id",
                    "type": "uint256",
                    "internalType": "uint256"
                }
            ],
            "outputs": [],
            "stateMutability": "nonpayable"
        },
        {
            "type": "function",
            "name": "burnPrescription",
            "inputs": [
                {
                    "name": "id",
                    "type": "uint256",
                    "internalType": "uint256"
                },
                {
                    "name": "amount",
                    "type": "uint256",
                    "internalType": "uint256"
                }
            ],
            "outputs": [],
            "stateMutability": "nonpayable"
        },
        {
            "type": "function",
            "name": "deliverPrescription",
            "inputs": [
                {
                    "name": "id",
                    "type": "uint256",
                    "internalType": "uint256"
                }
            ],
            "outputs": [],
            "stateMutability": "nonpayable"
        },
        {
            "type": "function",
            "name": "doctors",
            "inputs": [
                {
                    "name": "",
                    "type": "address",
                    "internalType": "address"
                }
            ],
            "outputs": [
                {
                    "name": "",
                    "type": "uint8",
                    "internalType": "enum PharmacyDAO.Roles"
                }
            ],
            "stateMutability": "view"
        },
        {
            "type": "function",
            "name": "mintPrescriptionTokens",
            "inputs": [
                {
                    "name": "amount",
                    "type": "uint256",
                    "internalType": "uint256"
                },
                {
                    "name": "cid",
                    "type": "bytes",
                    "internalType": "bytes"
                }
            ],
            "outputs": [],
            "stateMutability": "nonpayable"
        },
        {
            "type": "function",
            "name": "onERC1155BatchReceived",
            "inputs": [
                {
                    "name": "",
                    "type": "address",
                    "internalType": "address"
                },
                {
                    "name": "",
                    "type": "address",
                    "internalType": "address"
                },
                {
                    "name": "",
                    "type": "uint256[]",
                    "internalType": "uint256[]"
                },
                {
                    "name": "",
                    "type": "uint256[]",
                    "internalType": "uint256[]"
                },
                {
                    "name": "",
                    "type": "bytes",
                    "internalType": "bytes"
                }
            ],
            "outputs": [
                {
                    "name": "",
                    "type": "bytes4",
                    "internalType": "bytes4"
                }
            ],
            "stateMutability": "nonpayable"
        },
        {
            "type": "function",
            "name": "onERC1155Received",
            "inputs": [
                {
                    "name": "",
                    "type": "address",
                    "internalType": "address"
                },
                {
                    "name": "",
                    "type": "address",
                    "internalType": "address"
                },
                {
                    "name": "",
                    "type": "uint256",
                    "internalType": "uint256"
                },
                {
                    "name": "",
                    "type": "uint256",
                    "internalType": "uint256"
                },
                {
                    "name": "",
                    "type": "bytes",
                    "internalType": "bytes"
                }
            ],
            "outputs": [
                {
                    "name": "",
                    "type": "bytes4",
                    "internalType": "bytes4"
                }
            ],
            "stateMutability": "nonpayable"
        },
        {
            "type": "function",
            "name": "owner",
            "inputs": [],
            "outputs": [
                {
                    "name": "",
                    "type": "address",
                    "internalType": "address"
                }
            ],
            "stateMutability": "view"
        },
        {
            "type": "function",
            "name": "pharmacists",
            "inputs": [
                {
                    "name": "",
                    "type": "address",
                    "internalType": "address"
                }
            ],
            "outputs": [
                {
                    "name": "",
                    "type": "uint8",
                    "internalType": "enum PharmacyDAO.Roles"
                }
            ],
            "stateMutability": "view"
        },
        {
            "type": "function",
            "name": "pharmacyIdentifier",
            "inputs": [],
            "outputs": [
                {
                    "name": "",
                    "type": "string",
                    "internalType": "string"
                }
            ],
            "stateMutability": "view"
        },
        {
            "type": "function",
            "name": "prescriptionToken",
            "inputs": [],
            "outputs": [
                {
                    "name": "",
                    "type": "address",
                    "internalType": "contract Prescription"
                }
            ],
            "stateMutability": "view"
        },
        {
            "type": "function",
            "name": "proposePrescription",
            "inputs": [
                {
                    "name": "patient",
                    "type": "address",
                    "internalType": "address"
                },
                {
                    "name": "id",
                    "type": "uint256",
                    "internalType": "uint256"
                },
                {
                    "name": "amount",
                    "type": "uint256",
                    "internalType": "uint256"
                },
                {
                    "name": "data",
                    "type": "bytes",
                    "internalType": "bytes"
                }
            ],
            "outputs": [],
            "stateMutability": "nonpayable"
        },
        {
            "type": "function",
            "name": "rejectPrescription",
            "inputs": [
                {
                    "name": "patient",
                    "type": "address",
                    "internalType": "address"
                },
                {
                    "name": "id",
                    "type": "uint256",
                    "internalType": "uint256"
                },
                {
                    "name": "amount",
                    "type": "uint256",
                    "internalType": "uint256"
                }
            ],
            "outputs": [],
            "stateMutability": "nonpayable"
        },
        {
            "type": "function",
            "name": "removeDoctor",
            "inputs": [
                {
                    "name": "doctor",
                    "type": "address",
                    "internalType": "address"
                }
            ],
            "outputs": [],
            "stateMutability": "nonpayable"
        },
        {
            "type": "function",
            "name": "removePharmacist",
            "inputs": [
                {
                    "name": "pharmacist",
                    "type": "address",
                    "internalType": "address"
                }
            ],
            "outputs": [],
            "stateMutability": "nonpayable"
        },
        {
            "type": "function",
            "name": "setPrescriptionToken",
            "inputs": [
                {
                    "name": "_prescriptionToken",
                    "type": "address",
                    "internalType": "address"
                }
            ],
            "outputs": [],
            "stateMutability": "nonpayable"
        },
        {
            "type": "function",
            "name": "supportsInterface",
            "inputs": [
                {
                    "name": "interfaceId",
                    "type": "bytes4",
                    "internalType": "bytes4"
                }
            ],
            "outputs": [
                {
                    "name": "",
                    "type": "bool",
                    "internalType": "bool"
                }
            ],
            "stateMutability": "view"
        },
        {
            "type": "event",
            "name": "DoctorAdded",
            "inputs": [
                {
                    "name": "doctor",
                    "type": "address",
                    "indexed": false,
                    "internalType": "address"
                },
                {
                    "name": "timestamp",
                    "type": "uint256",
                    "indexed": false,
                    "internalType": "uint256"
                }
            ],
            "anonymous": false
        },
        {
            "type": "event",
            "name": "DoctorRemoved",
            "inputs": [
                {
                    "name": "doctor",
                    "type": "address",
                    "indexed": false,
                    "internalType": "address"
                },
                {
                    "name": "timestamp",
                    "type": "uint256",
                    "indexed": false,
                    "internalType": "uint256"
                }
            ],
            "anonymous": false
        },
        {
            "type": "event",
            "name": "PharmacistAdded",
            "inputs": [
                {
                    "name": "pharmacist",
                    "type": "address",
                    "indexed": false,
                    "internalType": "address"
                },
                {
                    "name": "timestamp",
                    "type": "uint256",
                    "indexed": false,
                    "internalType": "uint256"
                }
            ],
            "anonymous": false
        },
        {
            "type": "event",
            "name": "PharmacistRemoved",
            "inputs": [
                {
                    "name": "pharmacist",
                    "type": "address",
                    "indexed": false,
                    "internalType": "address"
                },
                {
                    "name": "timestamp",
                    "type": "uint256",
                    "indexed": false,
                    "internalType": "uint256"
                }
            ],
            "anonymous": false
        },
        {
            "type": "event",
            "name": "PrescriptionProposed",
            "inputs": [
                {
                    "name": "patient",
                    "type": "address",
                    "indexed": false,
                    "internalType": "address"
                },
                {
                    "name": "id",
                    "type": "uint256",
                    "indexed": false,
                    "internalType": "uint256"
                },
                {
                    "name": "timestamp",
                    "type": "uint256",
                    "indexed": false,
                    "internalType": "uint256"
                }
            ],
            "anonymous": false
        }
    ],
    "bytecode": {
        "object": "0x608060405234801561001057600080fd5b5060405161140b38038061140b83398101604081905261002f9161006a565b600061003b82826101bf565b5050600280546001600160a01b0319163317905561027d565b634e487b7160e01b600052604160045260246000fd5b60006020828403121561007c57600080fd5b81516001600160401b0381111561009257600080fd5b8201601f810184136100a357600080fd5b80516001600160401b038111156100bc576100bc610054565b604051601f8201601f19908116603f011681016001600160401b03811182821017156100ea576100ea610054565b60405281815282820160200186101561010257600080fd5b60005b8281101561012157602081850181015183830182015201610105565b50600091810160200191909152949350505050565b600181811c9082168061014a57607f821691505b60208210810361016a57634e487b7160e01b600052602260045260246000fd5b50919050565b601f8211156101ba57806000526020600020601f840160051c810160208510156101975750805b601f840160051c820191505b818110156101b757600081556001016101a3565b50505b505050565b81516001600160401b038111156101d8576101d8610054565b6101ec816101e68454610136565b84610170565b6020601f82116001811461022057600083156102085750848201515b600019600385901b1c1916600184901b1784556101b7565b600084815260208120601f198516915b828110156102505787850151825560209485019460019092019101610230565b508482101561026e5786840151600019600387901b60f8161c191681555b50505050600190811b01905550565b61117f8061028c6000396000f3fe608060405234801561001057600080fd5b50600436106101215760003560e01c806398fc90e9116100ad578063bc197c8111610071578063bc197c811461028e578063c09e2693146102c6578063d9c54dcd146102d9578063dc0fa409146102ec578063f23a6e61146102ff57600080fd5b806398fc90e91461021f5780639ec48d2114610232578063a6df875214610245578063a9583c2214610258578063b9c0ea301461027b57600080fd5b80634780468f116100f45780634780468f146101a65780635e3f5b97146101b95780638100a2c9146101ce5780638da5cb5b146101e15780639652d4ab1461020c57600080fd5b806301ffc9a7146101265780630c49e8401461014e5780631abf575a146101635780632a9447f814610193575b600080fd5b610139610134366004610bfb565b61031e565b60405190151581526020015b60405180910390f35b61016161015c366004610c48565b610355565b005b610186610171366004610c48565b60046020526000908152604090205460ff1681565b6040516101459190610c79565b6101616101a1366004610ca1565b6103d0565b6101616101b4366004610c48565b61048a565b6101c1610542565b6040516101459190610d00565b6101616101dc366004610d13565b6105d0565b6002546101f4906001600160a01b031681565b6040516001600160a01b039091168152602001610145565b6001546101f4906001600160a01b031681565b61016161022d366004610c48565b610691565b610161610240366004610d35565b61073f565b610161610253366004610e1f565b610809565b610186610266366004610c48565b60036020526000908152604090205460ff1681565b610161610289366004610e66565b6108db565b6102ad61029c366004610f4a565b63bc197c8160e01b95945050505050565b6040516001600160e01b03199091168152602001610145565b6101616102d4366004610c48565b610a17565b6101616102e7366004610c48565b610ac8565b6101616102fa366004610ca1565b610b72565b6102ad61030d366004611000565b63f23a6e6160e01b95945050505050565b60006001600160e01b03198216630271189760e51b148061034f57506301ffc9a760e01b6001600160e01b03198316145b92915050565b6002546001600160a01b031633146103ae5760405162461bcd60e51b815260206004820152601760248201527621b0b63632b91034b9903737ba103a34329037bbb732b960491b60448201526064015b60405180910390fd5b600180546001600160a01b0319166001600160a01b0392909216919091179055565b60023360009081526004602052604090205460ff1660038111156103f6576103f6610c63565b148061040c57506002546001600160a01b031633145b6104285760405162461bcd60e51b81526004016103a590611059565b60015460405163055288ff60e31b8152600481018390526001600160a01b0390911690632a9447f8906024015b600060405180830381600087803b15801561046f57600080fd5b505af1158015610483573d6000803e3d6000fd5b5050505050565b60023360009081526004602052604090205460ff1660038111156104b0576104b0610c63565b14806104c657506002546001600160a01b031633145b6104e25760405162461bcd60e51b81526004016103a590611059565b6001600160a01b038116600081815260036020908152604091829020805460ff19166001179055815192835242908301527f116cdc7f99f6e75498b3babd17f66a95436b0f05fc7dc8fc066a3797ab7ef27d91015b60405180910390a150565b6000805461054f90611090565b80601f016020809104026020016040519081016040528092919081815260200182805461057b90611090565b80156105c85780601f1061059d576101008083540402835291602001916105c8565b820191906000526020600020905b8154815290600101906020018083116105ab57829003601f168201915b505050505081565b60023360009081526004602052604090205460ff1660038111156105f6576105f6610c63565b148061060c57506002546001600160a01b031633145b6106285760405162461bcd60e51b81526004016103a590611059565b60015460405163b390c0ab60e01b815260048101849052602481018390526001600160a01b039091169063b390c0ab90604401600060405180830381600087803b15801561067557600080fd5b505af1158015610689573d6000803e3d6000fd5b505050505050565b60023360009081526004602052604090205460ff1660038111156106b7576106b7610c63565b14806106cd57506002546001600160a01b031633145b6106e95760405162461bcd60e51b81526004016103a590611059565b6001600160a01b038116600081815260036020908152604091829020805460ff19169055815192835242908301527fa71431043205949af83c925167531f16cee0dd1ccbb22460126afb0e7c12c15e9101610537565b60023360009081526004602052604090205460ff16600381111561076557610765610c63565b148061077b57506002546001600160a01b031633145b6107975760405162461bcd60e51b81526004016103a590611059565b600154604051639ec48d2160e01b81526001600160a01b038581166004830152602482018590526044820184905290911690639ec48d2190606401600060405180830381600087803b1580156107ec57600080fd5b505af1158015610800573d6000803e3d6000fd5b50505050505050565b60023360009081526004602052604090205460ff16600381111561082f5761082f610c63565b148061084557506002546001600160a01b031633145b6108615760405162461bcd60e51b81526004016103a590611059565b600154604051631b6ffa8160e31b81526001600160a01b039091169063db7fd4089061089390859085906004016110ca565b6020604051808303816000875af11580156108b2573d6000803e3d6000fd5b505050506040513d601f19601f820116820180604052508101906108d691906110eb565b505050565b60013360009081526003602081905260409091205460ff169081111561090357610903610c63565b148061091957506002546001600160a01b031633145b61095e5760405162461bcd60e51b815260206004820152601660248201527521b0b63632b91034b9903737ba1030903237b1ba37b960511b60448201526064016103a5565b600154604051637921219560e11b81526001600160a01b039091169063f242432a906109969030908890889088908890600401611104565b600060405180830381600087803b1580156109b057600080fd5b505af11580156109c4573d6000803e3d6000fd5b5050604080516001600160a01b038816815260208101879052428183015290517f628c20135d0e2e68fe483043c074af7229fcdfbfb3cddeb8b4789746cdcfa30c9350908190036060019150a150505050565b60023360009081526004602052604090205460ff166003811115610a3d57610a3d610c63565b1480610a5357506002546001600160a01b031633145b610a6f5760405162461bcd60e51b81526004016103a590611059565b6001600160a01b038116600081815260046020908152604091829020805460ff19166002179055815192835242908301527f662665621cbfc25fd49b90560fc04a9612a9da0092ecea4522ea0360cf0e8aca9101610537565b6002546001600160a01b03163314610b1c5760405162461bcd60e51b815260206004820152601760248201527621b0b63632b91034b9903737ba103a34329037bbb732b960491b60448201526064016103a5565b6001600160a01b038116600081815260046020908152604091829020805460ff19169055815192835242908301527fc3073282cde9994d8217a476a820ea83657bbf9b061e56ff42e57007fdf26dcc9101610537565b60023360009081526004602052604090205460ff166003811115610b9857610b98610c63565b1480610bae57506002546001600160a01b031633145b610bca5760405162461bcd60e51b81526004016103a590611059565b60015460405163dc0fa40960e01b8152600481018390526001600160a01b039091169063dc0fa40990602401610455565b600060208284031215610c0d57600080fd5b81356001600160e01b031981168114610c2557600080fd5b9392505050565b80356001600160a01b0381168114610c4357600080fd5b919050565b600060208284031215610c5a57600080fd5b610c2582610c2c565b634e487b7160e01b600052602160045260246000fd5b6020810160048310610c9b57634e487b7160e01b600052602160045260246000fd5b91905290565b600060208284031215610cb357600080fd5b5035919050565b6000815180845260005b81811015610ce057602081850181015186830182015201610cc4565b506000602082860101526020601f19601f83011685010191505092915050565b602081526000610c256020830184610cba565b60008060408385031215610d2657600080fd5b50508035926020909101359150565b600080600060608486031215610d4a57600080fd5b610d5384610c2c565b95602085013595506040909401359392505050565b634e487b7160e01b600052604160045260246000fd5b604051601f8201601f1916810167ffffffffffffffff81118282101715610da757610da7610d68565b604052919050565b600082601f830112610dc057600080fd5b813567ffffffffffffffff811115610dda57610dda610d68565b610ded601f8201601f1916602001610d7e565b818152846020838601011115610e0257600080fd5b816020850160208301376000918101602001919091529392505050565b60008060408385031215610e3257600080fd5b82359150602083013567ffffffffffffffff811115610e5057600080fd5b610e5c85828601610daf565b9150509250929050565b60008060008060808587031215610e7c57600080fd5b610e8585610c2c565b93506020850135925060408501359150606085013567ffffffffffffffff811115610eaf57600080fd5b610ebb87828801610daf565b91505092959194509250565b600082601f830112610ed857600080fd5b813567ffffffffffffffff811115610ef257610ef2610d68565b8060051b610f0260208201610d7e565b91825260208185018101929081019086841115610f1e57600080fd5b6020860192505b83831015610f40578235825260209283019290910190610f25565b9695505050505050565b600080600080600060a08688031215610f6257600080fd5b610f6b86610c2c565b9450610f7960208701610c2c565b9350604086013567ffffffffffffffff811115610f9557600080fd5b610fa188828901610ec7565b935050606086013567ffffffffffffffff811115610fbe57600080fd5b610fca88828901610ec7565b925050608086013567ffffffffffffffff811115610fe757600080fd5b610ff388828901610daf565b9150509295509295909350565b600080600080600060a0868803121561101857600080fd5b61102186610c2c565b945061102f60208701610c2c565b93506040860135925060608601359150608086013567ffffffffffffffff811115610fe757600080fd5b6020808252601a908201527f43616c6c6572206973206e6f74206120706861726d6163697374000000000000604082015260600190565b600181811c908216806110a457607f821691505b6020821081036110c457634e487b7160e01b600052602260045260246000fd5b50919050565b8281526040602082015260006110e36040830184610cba565b949350505050565b6000602082840312156110fd57600080fd5b5051919050565b6001600160a01b03868116825285166020820152604081018490526060810183905260a06080820181905260009061113e90830184610cba565b97965050505050505056fea264697066735822122033bfae1da8b968ae39884c4921d444184d9d29714e8d1aa5e48db302f51bb59d64736f6c634300081a0033",
        "linkReferences": {}
    },
    "methodIdentifiers": {
        "addDoctor(address)": "4780468f",
        "addPharmacist(address)": "c09e2693",
        "approvePrescription(uint256)": "2a9447f8",
        "burnPrescription(uint256,uint256)": "8100a2c9",
        "deliverPrescription(uint256)": "dc0fa409",
        "doctors(address)": "a9583c22",
        "mintPrescriptionTokens(uint256,bytes)": "a6df8752",
        "onERC1155BatchReceived(address,address,uint256[],uint256[],bytes)": "bc197c81",
        "onERC1155Received(address,address,uint256,uint256,bytes)": "f23a6e61",
        "owner()": "8da5cb5b",
        "pharmacists(address)": "1abf575a",
        "pharmacyIdentifier()": "5e3f5b97",
        "prescriptionToken()": "9652d4ab",
        "proposePrescription(address,uint256,uint256,bytes)": "b9c0ea30",
        "rejectPrescription(address,uint256,uint256)": "9ec48d21",
        "removeDoctor(address)": "98fc90e9",
        "removePharmacist(address)": "d9c54dcd",
        "setPrescriptionToken(address)": "0c49e840",
        "supportsInterface(bytes4)": "01ffc9a7"
    },
    "compiler": {
        "version": "0.8.26+commit.8a97fa7a"
    },
    "language": "Solidity",
    "output": {
        "abi": [
            {
                "inputs": [
                    {
                        "internalType": "string",
                        "name": "_pharmacyIdentifier",
                        "type": "string"
                    }
                ],
                "stateMutability": "nonpayable",
                "type": "constructor"
            },
            {
                "anonymous": false,
                "inputs": [
                    {
                        "indexed": false,
                        "internalType": "address",
                        "name": "doctor",
                        "type": "address"
                    },
                    {
                        "indexed": false,
                        "internalType": "uint256",
                        "name": "timestamp",
                        "type": "uint256"
                    }
                ],
                "name": "DoctorAdded",
                "type": "event"
            },
            {
                "anonymous": false,
                "inputs": [
                    {
                        "indexed": false,
                        "internalType": "address",
                        "name": "doctor",
                        "type": "address"
                    },
                    {
                        "indexed": false,
                        "internalType": "uint256",
                        "name": "timestamp",
                        "type": "uint256"
                    }
                ],
                "name": "DoctorRemoved",
                "type": "event"
            },
            {
                "anonymous": false,
                "inputs": [
                    {
                        "indexed": false,
                        "internalType": "address",
                        "name": "pharmacist",
                        "type": "address"
                    },
                    {
                        "indexed": false,
                        "internalType": "uint256",
                        "name": "timestamp",
                        "type": "uint256"
                    }
                ],
                "name": "PharmacistAdded",
                "type": "event"
            },
            {
                "anonymous": false,
                "inputs": [
                    {
                        "indexed": false,
                        "internalType": "address",
                        "name": "pharmacist",
                        "type": "address"
                    },
                    {
                        "indexed": false,
                        "internalType": "uint256",
                        "name": "timestamp",
                        "type": "uint256"
                    }
                ],
                "name": "PharmacistRemoved",
                "type": "event"
            },
            {
                "anonymous": false,
                "inputs": [
                    {
                        "indexed": false,
                        "internalType": "address",
                        "name": "patient",
                        "type": "address"
                    },
                    {
                        "indexed": false,
                        "internalType": "uint256",
                        "name": "id",
                        "type": "uint256"
                    },
                    {
                        "indexed": false,
                        "internalType": "uint256",
                        "name": "timestamp",
                        "type": "uint256"
                    }
                ],
                "name": "PrescriptionProposed",
                "type": "event"
            },
            {
                "inputs": [
                    {
                        "internalType": "address",
                        "name": "doctor",
                        "type": "address"
                    }
                ],
                "name": "addDoctor",
                "outputs": [],
                "stateMutability": "nonpayable",
                "type": "function"
            },
            {
                "inputs": [
                    {
                        "internalType": "address",
                        "name": "pharmacist",
                        "type": "address"
                    }
                ],
                "name": "addPharmacist",
                "outputs": [],
                "stateMutability": "nonpayable",
                "type": "function"
            },
            {
                "inputs": [
                    {
                        "internalType": "uint256",
                        "name": "id",
                        "type": "uint256"
                    }
                ],
                "name": "approvePrescription",
                "outputs": [],
                "stateMutability": "nonpayable",
                "type": "function"
            },
            {
                "inputs": [
                    {
                        "internalType": "uint256",
                        "name": "id",
                        "type": "uint256"
                    },
                    {
                        "internalType": "uint256",
                        "name": "amount",
                        "type": "uint256"
                    }
                ],
                "name": "burnPrescription",
                "outputs": [],
                "stateMutability": "nonpayable",
                "type": "function"
            },
            {
                "inputs": [
                    {
                        "internalType": "uint256",
                        "name": "id",
                        "type": "uint256"
                    }
                ],
                "name": "deliverPrescription",
                "outputs": [],
                "stateMutability": "nonpayable",
                "type": "function"
            },
            {
                "inputs": [
                    {
                        "internalType": "address",
                        "name": "",
                        "type": "address"
                    }
                ],
                "name": "doctors",
                "outputs": [
                    {
                        "internalType": "enum PharmacyDAO.Roles",
                        "name": "",
                        "type": "uint8"
                    }
                ],
                "stateMutability": "view",
                "type": "function"
            },
            {
                "inputs": [
                    {
                        "internalType": "uint256",
                        "name": "amount",
                        "type": "uint256"
                    },
                    {
                        "internalType": "bytes",
                        "name": "cid",
                        "type": "bytes"
                    }
                ],
                "name": "mintPrescriptionTokens",
                "outputs": [],
                "stateMutability": "nonpayable",
                "type": "function"
            },
            {
                "inputs": [
                    {
                        "internalType": "address",
                        "name": "",
                        "type": "address"
                    },
                    {
                        "internalType": "address",
                        "name": "",
                        "type": "address"
                    },
                    {
                        "internalType": "uint256[]",
                        "name": "",
                        "type": "uint256[]"
                    },
                    {
                        "internalType": "uint256[]",
                        "name": "",
                        "type": "uint256[]"
                    },
                    {
                        "internalType": "bytes",
                        "name": "",
                        "type": "bytes"
                    }
                ],
                "name": "onERC1155BatchReceived",
                "outputs": [
                    {
                        "internalType": "bytes4",
                        "name": "",
                        "type": "bytes4"
                    }
                ],
                "stateMutability": "nonpayable",
                "type": "function"
            },
            {
                "inputs": [
                    {
                        "internalType": "address",
                        "name": "",
                        "type": "address"
                    },
                    {
                        "internalType": "address",
                        "name": "",
                        "type": "address"
                    },
                    {
                        "internalType": "uint256",
                        "name": "",
                        "type": "uint256"
                    },
                    {
                        "internalType": "uint256",
                        "name": "",
                        "type": "uint256"
                    },
                    {
                        "internalType": "bytes",
                        "name": "",
                        "type": "bytes"
                    }
                ],
                "name": "onERC1155Received",
                "outputs": [
                    {
                        "internalType": "bytes4",
                        "name": "",
                        "type": "bytes4"
                    }
                ],
                "stateMutability": "nonpayable",
                "type": "function"
            },
            {
                "inputs": [],
                "name": "owner",
                "outputs": [
                    {
                        "internalType": "address",
                        "name": "",
                        "type": "address"
                    }
                ],
                "stateMutability": "view",
                "type": "function"
            },
            {
                "inputs": [
                    {
                        "internalType": "address",
                        "name": "",
                        "type": "address"
                    }
                ],
                "name": "pharmacists",
                "outputs": [
                    {
                        "internalType": "enum PharmacyDAO.Roles",
                        "name": "",
                        "type": "uint8"
                    }
                ],
                "stateMutability": "view",
                "type": "function"
            },
            {
                "inputs": [],
                "name": "pharmacyIdentifier",
                "outputs": [
                    {
                        "internalType": "string",
                        "name": "",
                        "type": "string"
                    }
                ],
                "stateMutability": "view",
                "type": "function"
            },
            {
                "inputs": [],
                "name": "prescriptionToken",
                "outputs": [
                    {
                        "internalType": "contract Prescription",
                        "name": "",
                        "type": "address"
                    }
                ],
                "stateMutability": "view",
                "type": "function"
            },
            {
                "inputs": [
                    {
                        "internalType": "address",
                        "name": "patient",
                        "type": "address"
                    },
                    {
                        "internalType": "uint256",
                        "name": "id",
                        "type": "uint256"
                    },
                    {
                        "internalType": "uint256",
                        "name": "amount",
                        "type": "uint256"
                    },
                    {
                        "internalType": "bytes",
                        "name": "data",
                        "type": "bytes"
                    }
                ],
                "name": "transferPrescriptionTokens",
                "outputs": [],
                "stateMutability": "nonpayable",
                "type": "function"
            }
        ],
        "devdoc": {
            "title": "PharmacyDAO",
            "details": "Smart contract to manage pharmacy and prescription processes."
        },
        "userdoc": {
            "methods": {
                "addDoctor": {
                    "details": "Add a new doctor to the system."
                },
                "addPharmacist": {
                    "details": "Add a new pharmacist to the system."
                },
                "approvePrescription": {
                    "details": "Approve a prescription."
                },
                "deliverPrescription": {
                    "details": "Deliver a prescription."
                }
            }
        }
    },
    "settings": {
        "compilationTarget": {
            "contracts/PharmacyDAO.sol": "PharmacyDAO"
        },
        "evmVersion": "byzantium",
        "libraries": {},
        "outputSelection": {
            "*": {
                "*": [
                    "abi",
                    "evm.bytecode",
                    "evm.deployedBytecode",
                    "evm.methodIdentifiers"
                ]
            }
        }
    },
    "version": 1
}