{
    "abi": [
        {
            "type": "constructor",
            "inputs": [
                {
                    "name": "_pharmacyIdentifier",
                    "type": "string",
                    "internalType": "string"
                }
            ],
            "stateMutability": "nonpayable"
        },
        {
            "type": "function",
            "name": "addDoctor",
            "inputs": [
                {
                    "name": "doctor",
                    "type": "address",
                    "internalType": "address"
                }
            ],
            "outputs": [],
            "stateMutability": "nonpayable"
        },
        {
            "type": "function",
            "name": "addPharmacist",
            "inputs": [
                {
                    "name": "pharmacist",
                    "type": "address",
                    "internalType": "address"
                }
            ],
            "outputs": [],
            "stateMutability": "nonpayable"
        },
        {
            "type": "function",
            "name": "approvePrescription",
            "inputs": [
                {
                    "name": "id",
                    "type": "uint256",
                    "internalType": "uint256"
                }
            ],
            "outputs": [],
            "stateMutability": "nonpayable"
        },
        {
            "type": "function",
            "name": "burnPrescription",
            "inputs": [
                {
                    "name": "id",
                    "type": "uint256",
                    "internalType": "uint256"
                },
                {
                    "name": "amount",
                    "type": "uint256",
                    "internalType": "uint256"
                }
            ],
            "outputs": [],
            "stateMutability": "nonpayable"
        },
        {
            "type": "function",
            "name": "checkPrescriptionState",
            "inputs": [
                {
                    "name": "id",
                    "type": "uint256",
                    "internalType": "uint256"
                }
            ],
            "outputs": [
                {
                    "name": "",
                    "type": "uint8",
                    "internalType": "uint8"
                }
            ],
            "stateMutability": "view"
        },
        {
            "type": "function",
            "name": "deliverPrescription",
            "inputs": [
                {
                    "name": "id",
                    "type": "uint256",
                    "internalType": "uint256"
                }
            ],
            "outputs": [],
            "stateMutability": "nonpayable"
        },
        {
            "type": "function",
            "name": "doctors",
            "inputs": [
                {
                    "name": "",
                    "type": "address",
                    "internalType": "address"
                }
            ],
            "outputs": [
                {
                    "name": "",
                    "type": "uint8",
                    "internalType": "enum PharmacyDAO.Roles"
                }
            ],
            "stateMutability": "view"
        },
        {
            "type": "function",
            "name": "mintPrescriptionTokens",
            "inputs": [
                {
                    "name": "id",
                    "type": "uint256",
                    "internalType": "uint256"
                },
                {
                    "name": "amount",
                    "type": "uint256",
                    "internalType": "uint256"
                },
                {
                    "name": "cid",
                    "type": "bytes",
                    "internalType": "bytes"
                }
            ],
            "outputs": [],
            "stateMutability": "nonpayable"
        },
        {
            "type": "function",
            "name": "onERC1155BatchReceived",
            "inputs": [
                {
                    "name": "",
                    "type": "address",
                    "internalType": "address"
                },
                {
                    "name": "",
                    "type": "address",
                    "internalType": "address"
                },
                {
                    "name": "",
                    "type": "uint256[]",
                    "internalType": "uint256[]"
                },
                {
                    "name": "",
                    "type": "uint256[]",
                    "internalType": "uint256[]"
                },
                {
                    "name": "",
                    "type": "bytes",
                    "internalType": "bytes"
                }
            ],
            "outputs": [
                {
                    "name": "",
                    "type": "bytes4",
                    "internalType": "bytes4"
                }
            ],
            "stateMutability": "nonpayable"
        },
        {
            "type": "function",
            "name": "onERC1155Received",
            "inputs": [
                {
                    "name": "",
                    "type": "address",
                    "internalType": "address"
                },
                {
                    "name": "",
                    "type": "address",
                    "internalType": "address"
                },
                {
                    "name": "",
                    "type": "uint256",
                    "internalType": "uint256"
                },
                {
                    "name": "",
                    "type": "uint256",
                    "internalType": "uint256"
                },
                {
                    "name": "",
                    "type": "bytes",
                    "internalType": "bytes"
                }
            ],
            "outputs": [
                {
                    "name": "",
                    "type": "bytes4",
                    "internalType": "bytes4"
                }
            ],
            "stateMutability": "nonpayable"
        },
        {
            "type": "function",
            "name": "owner",
            "inputs": [],
            "outputs": [
                {
                    "name": "",
                    "type": "address",
                    "internalType": "address"
                }
            ],
            "stateMutability": "view"
        },
        {
            "type": "function",
            "name": "pharmacists",
            "inputs": [
                {
                    "name": "",
                    "type": "address",
                    "internalType": "address"
                }
            ],
            "outputs": [
                {
                    "name": "",
                    "type": "uint8",
                    "internalType": "enum PharmacyDAO.Roles"
                }
            ],
            "stateMutability": "view"
        },
        {
            "type": "function",
            "name": "pharmacyIdentifier",
            "inputs": [],
            "outputs": [
                {
                    "name": "",
                    "type": "string",
                    "internalType": "string"
                }
            ],
            "stateMutability": "view"
        },
        {
            "type": "function",
            "name": "prescriptionToken",
            "inputs": [],
            "outputs": [
                {
                    "name": "",
                    "type": "address",
                    "internalType": "contract Prescription"
                }
            ],
            "stateMutability": "view"
        },
        {
            "type": "function",
            "name": "proposePrescription",
            "inputs": [
                {
                    "name": "patient",
                    "type": "address",
                    "internalType": "address"
                },
                {
                    "name": "id",
                    "type": "uint256",
                    "internalType": "uint256"
                },
                {
                    "name": "amount",
                    "type": "uint256",
                    "internalType": "uint256"
                },
                {
                    "name": "data",
                    "type": "bytes",
                    "internalType": "bytes"
                }
            ],
            "outputs": [],
            "stateMutability": "nonpayable"
        },
        {
            "type": "function",
            "name": "rejectPrescription",
            "inputs": [
                {
                    "name": "patient",
                    "type": "address",
                    "internalType": "address"
                },
                {
                    "name": "id",
                    "type": "uint256",
                    "internalType": "uint256"
                },
                {
                    "name": "amount",
                    "type": "uint256",
                    "internalType": "uint256"
                }
            ],
            "outputs": [],
            "stateMutability": "nonpayable"
        },
        {
            "type": "function",
            "name": "removeDoctor",
            "inputs": [
                {
                    "name": "doctor",
                    "type": "address",
                    "internalType": "address"
                }
            ],
            "outputs": [],
            "stateMutability": "nonpayable"
        },
        {
            "type": "function",
            "name": "removePharmacist",
            "inputs": [
                {
                    "name": "pharmacist",
                    "type": "address",
                    "internalType": "address"
                }
            ],
            "outputs": [],
            "stateMutability": "nonpayable"
        },
        {
            "type": "function",
            "name": "setPrescriptionToken",
            "inputs": [
                {
                    "name": "_prescriptionToken",
                    "type": "address",
                    "internalType": "address"
                }
            ],
            "outputs": [],
            "stateMutability": "nonpayable"
        },
        {
            "type": "function",
            "name": "supportsInterface",
            "inputs": [
                {
                    "name": "interfaceId",
                    "type": "bytes4",
                    "internalType": "bytes4"
                }
            ],
            "outputs": [
                {
                    "name": "",
                    "type": "bool",
                    "internalType": "bool"
                }
            ],
            "stateMutability": "view"
        },
        {
            "type": "event",
            "name": "DoctorAdded",
            "inputs": [
                {
                    "name": "doctor",
                    "type": "address",
                    "indexed": false,
                    "internalType": "address"
                },
                {
                    "name": "timestamp",
                    "type": "uint256",
                    "indexed": false,
                    "internalType": "uint256"
                }
            ],
            "anonymous": false
        },
        {
            "type": "event",
            "name": "DoctorRemoved",
            "inputs": [
                {
                    "name": "doctor",
                    "type": "address",
                    "indexed": false,
                    "internalType": "address"
                },
                {
                    "name": "timestamp",
                    "type": "uint256",
                    "indexed": false,
                    "internalType": "uint256"
                }
            ],
            "anonymous": false
        },
        {
            "type": "event",
            "name": "PharmacistAdded",
            "inputs": [
                {
                    "name": "pharmacist",
                    "type": "address",
                    "indexed": false,
                    "internalType": "address"
                },
                {
                    "name": "timestamp",
                    "type": "uint256",
                    "indexed": false,
                    "internalType": "uint256"
                }
            ],
            "anonymous": false
        },
        {
            "type": "event",
            "name": "PharmacistRemoved",
            "inputs": [
                {
                    "name": "pharmacist",
                    "type": "address",
                    "indexed": false,
                    "internalType": "address"
                },
                {
                    "name": "timestamp",
                    "type": "uint256",
                    "indexed": false,
                    "internalType": "uint256"
                }
            ],
            "anonymous": false
        },
        {
            "type": "event",
            "name": "PrescriptionProposed",
            "inputs": [
                {
                    "name": "patient",
                    "type": "address",
                    "indexed": false,
                    "internalType": "address"
                },
                {
                    "name": "id",
                    "type": "uint256",
                    "indexed": false,
                    "internalType": "uint256"
                },
                {
                    "name": "timestamp",
                    "type": "uint256",
                    "indexed": false,
                    "internalType": "uint256"
                }
            ],
            "anonymous": false
        }
    ],
    "bytecode": {
        "object": "0x608060405234801561001057600080fd5b5060405161149138038061149183398101604081905261002f9161006a565b600061003b82826101bf565b5050600280546001600160a01b0319163317905561027d565b634e487b7160e01b600052604160045260246000fd5b60006020828403121561007c57600080fd5b81516001600160401b0381111561009257600080fd5b8201601f810184136100a357600080fd5b80516001600160401b038111156100bc576100bc610054565b604051601f8201601f19908116603f011681016001600160401b03811182821017156100ea576100ea610054565b60405281815282820160200186101561010257600080fd5b60005b8281101561012157602081850181015183830182015201610105565b50600091810160200191909152949350505050565b600181811c9082168061014a57607f821691505b60208210810361016a57634e487b7160e01b600052602260045260246000fd5b50919050565b601f8211156101ba57806000526020600020601f840160051c810160208510156101975750805b601f840160051c820191505b818110156101b757600081556001016101a3565b50505b505050565b81516001600160401b038111156101d8576101d8610054565b6101ec816101e68454610136565b84610170565b6020601f82116001811461022057600083156102085750848201515b600019600385901b1c1916600184901b1784556101b7565b600084815260208120601f198516915b828110156102505787850151825560209485019460019092019101610230565b508482101561026e5786840151600019600387901b60f8161c191681555b50505050600190811b01905550565b6112058061028c6000396000f3fe608060405234801561001057600080fd5b506004361061012c5760003560e01c80639652d4ab116100ad578063bc197c8111610071578063bc197c81146102be578063c09e2693146102f6578063d9c54dcd14610309578063dc0fa4091461031c578063f23a6e611461032f57600080fd5b80639652d4ab1461024f57806398fc90e9146102625780639ec48d2114610275578063a9583c2214610288578063b9c0ea30146102ab57600080fd5b80634780468f116100f45780634780468f146101d65780634b4012e3146101e95780635e3f5b97146101fc5780638100a2c9146102115780638da5cb5b1461022457600080fd5b806301ffc9a7146101315780630c49e840146101595780631abf575a1461016e5780632a9447f81461019e5780633556a75c146101b1575b600080fd5b61014461013f366004610c69565b61034e565b60405190151581526020015b60405180910390f35b61016c610167366004610cb6565b610385565b005b61019161017c366004610cb6565b60046020526000908152604090205460ff1681565b6040516101509190610ce7565b61016c6101ac366004610d0f565b610400565b6101c46101bf366004610d0f565b6104ba565b60405160ff9091168152602001610150565b61016c6101e4366004610cb6565b610539565b61016c6101f7366004610ddf565b6105f1565b6102046106b4565b6040516101509190610e75565b61016c61021f366004610e88565b610742565b600254610237906001600160a01b031681565b6040516001600160a01b039091168152602001610150565b600154610237906001600160a01b031681565b61016c610270366004610cb6565b610803565b61016c610283366004610eaa565b6108b1565b610191610296366004610cb6565b60036020526000908152604090205460ff1681565b61016c6102b9366004610edd565b610949565b6102dd6102cc366004610fc1565b63bc197c8160e01b95945050505050565b6040516001600160e01b03199091168152602001610150565b61016c610304366004610cb6565b610a85565b61016c610317366004610cb6565b610b36565b61016c61032a366004610d0f565b610be0565b6102dd61033d366004611077565b63f23a6e6160e01b95945050505050565b60006001600160e01b03198216630271189760e51b148061037f57506301ffc9a760e01b6001600160e01b03198316145b92915050565b6002546001600160a01b031633146103de5760405162461bcd60e51b815260206004820152601760248201527621b0b63632b91034b9903737ba103a34329037bbb732b960491b60448201526064015b60405180910390fd5b600180546001600160a01b0319166001600160a01b0392909216919091179055565b60023360009081526004602052604090205460ff16600381111561042657610426610cd1565b148061043c57506002546001600160a01b031633145b6104585760405162461bcd60e51b81526004016103d5906110d0565b60015460405163055288ff60e31b8152600481018390526001600160a01b0390911690632a9447f8906024015b600060405180830381600087803b15801561049f57600080fd5b505af11580156104b3573d6000803e3d6000fd5b5050505050565b600154604051630d55a9d760e21b8152600481018390526000916001600160a01b031690633556a75c90602401602060405180830381865afa158015610504573d6000803e3d6000fd5b505050506040513d601f19601f820116820180604052508101906105289190611107565b600281111561037f5761037f610cd1565b60023360009081526004602052604090205460ff16600381111561055f5761055f610cd1565b148061057557506002546001600160a01b031633145b6105915760405162461bcd60e51b81526004016103d5906110d0565b6001600160a01b038116600081815260036020908152604091829020805460ff19166001179055815192835242908301527f116cdc7f99f6e75498b3babd17f66a95436b0f05fc7dc8fc066a3797ab7ef27d91015b60405180910390a150565b60023360009081526004602052604090205460ff16600381111561061757610617610cd1565b148061062d57506002546001600160a01b031633145b6106495760405162461bcd60e51b81526004016103d5906110d0565b60015460405163046e4fa160e11b81526001600160a01b03909116906308dc9f429061067d90869086908690600401611128565b600060405180830381600087803b15801561069757600080fd5b505af11580156106ab573d6000803e3d6000fd5b50505050505050565b600080546106c190611150565b80601f01602080910402602001604051908101604052809291908181526020018280546106ed90611150565b801561073a5780601f1061070f5761010080835404028352916020019161073a565b820191906000526020600020905b81548152906001019060200180831161071d57829003601f168201915b505050505081565b60023360009081526004602052604090205460ff16600381111561076857610768610cd1565b148061077e57506002546001600160a01b031633145b61079a5760405162461bcd60e51b81526004016103d5906110d0565b60015460405163b390c0ab60e01b815260048101849052602481018390526001600160a01b039091169063b390c0ab90604401600060405180830381600087803b1580156107e757600080fd5b505af11580156107fb573d6000803e3d6000fd5b505050505050565b60023360009081526004602052604090205460ff16600381111561082957610829610cd1565b148061083f57506002546001600160a01b031633145b61085b5760405162461bcd60e51b81526004016103d5906110d0565b6001600160a01b038116600081815260036020908152604091829020805460ff19169055815192835242908301527fa71431043205949af83c925167531f16cee0dd1ccbb22460126afb0e7c12c15e91016105e6565b60023360009081526004602052604090205460ff1660038111156108d7576108d7610cd1565b14806108ed57506002546001600160a01b031633145b6109095760405162461bcd60e51b81526004016103d5906110d0565b600154604051639ec48d2160e01b81526001600160a01b038581166004830152602482018590526044820184905290911690639ec48d219060640161067d565b60013360009081526003602081905260409091205460ff169081111561097157610971610cd1565b148061098757506002546001600160a01b031633145b6109cc5760405162461bcd60e51b815260206004820152601660248201527521b0b63632b91034b9903737ba1030903237b1ba37b960511b60448201526064016103d5565b600154604051637921219560e11b81526001600160a01b039091169063f242432a90610a04903090889088908890889060040161118a565b600060405180830381600087803b158015610a1e57600080fd5b505af1158015610a32573d6000803e3d6000fd5b5050604080516001600160a01b038816815260208101879052428183015290517f628c20135d0e2e68fe483043c074af7229fcdfbfb3cddeb8b4789746cdcfa30c9350908190036060019150a150505050565b60023360009081526004602052604090205460ff166003811115610aab57610aab610cd1565b1480610ac157506002546001600160a01b031633145b610add5760405162461bcd60e51b81526004016103d5906110d0565b6001600160a01b038116600081815260046020908152604091829020805460ff19166002179055815192835242908301527f662665621cbfc25fd49b90560fc04a9612a9da0092ecea4522ea0360cf0e8aca91016105e6565b6002546001600160a01b03163314610b8a5760405162461bcd60e51b815260206004820152601760248201527621b0b63632b91034b9903737ba103a34329037bbb732b960491b60448201526064016103d5565b6001600160a01b038116600081815260046020908152604091829020805460ff19169055815192835242908301527fc3073282cde9994d8217a476a820ea83657bbf9b061e56ff42e57007fdf26dcc91016105e6565b60023360009081526004602052604090205460ff166003811115610c0657610c06610cd1565b1480610c1c57506002546001600160a01b031633145b610c385760405162461bcd60e51b81526004016103d5906110d0565b60015460405163dc0fa40960e01b8152600481018390526001600160a01b039091169063dc0fa40990602401610485565b600060208284031215610c7b57600080fd5b81356001600160e01b031981168114610c9357600080fd5b9392505050565b80356001600160a01b0381168114610cb157600080fd5b919050565b600060208284031215610cc857600080fd5b610c9382610c9a565b634e487b7160e01b600052602160045260246000fd5b6020810160048310610d0957634e487b7160e01b600052602160045260246000fd5b91905290565b600060208284031215610d2157600080fd5b5035919050565b634e487b7160e01b600052604160045260246000fd5b604051601f8201601f1916810167ffffffffffffffff81118282101715610d6757610d67610d28565b604052919050565b600082601f830112610d8057600080fd5b813567ffffffffffffffff811115610d9a57610d9a610d28565b610dad601f8201601f1916602001610d3e565b818152846020838601011115610dc257600080fd5b816020850160208301376000918101602001919091529392505050565b600080600060608486031215610df457600080fd5b8335925060208401359150604084013567ffffffffffffffff811115610e1957600080fd5b610e2586828701610d6f565b9150509250925092565b6000815180845260005b81811015610e5557602081850181015186830182015201610e39565b506000602082860101526020601f19601f83011685010191505092915050565b602081526000610c936020830184610e2f565b60008060408385031215610e9b57600080fd5b50508035926020909101359150565b600080600060608486031215610ebf57600080fd5b610ec884610c9a565b95602085013595506040909401359392505050565b60008060008060808587031215610ef357600080fd5b610efc85610c9a565b93506020850135925060408501359150606085013567ffffffffffffffff811115610f2657600080fd5b610f3287828801610d6f565b91505092959194509250565b600082601f830112610f4f57600080fd5b813567ffffffffffffffff811115610f6957610f69610d28565b8060051b610f7960208201610d3e565b91825260208185018101929081019086841115610f9557600080fd5b6020860192505b83831015610fb7578235825260209283019290910190610f9c565b9695505050505050565b600080600080600060a08688031215610fd957600080fd5b610fe286610c9a565b9450610ff060208701610c9a565b9350604086013567ffffffffffffffff81111561100c57600080fd5b61101888828901610f3e565b935050606086013567ffffffffffffffff81111561103557600080fd5b61104188828901610f3e565b925050608086013567ffffffffffffffff81111561105e57600080fd5b61106a88828901610d6f565b9150509295509295909350565b600080600080600060a0868803121561108f57600080fd5b61109886610c9a565b94506110a660208701610c9a565b93506040860135925060608601359150608086013567ffffffffffffffff81111561105e57600080fd5b6020808252601a908201527f43616c6c6572206973206e6f74206120706861726d6163697374000000000000604082015260600190565b60006020828403121561111957600080fd5b815160038110610c9357600080fd5b8381528260208201526060604082015260006111476060830184610e2f565b95945050505050565b600181811c9082168061116457607f821691505b60208210810361118457634e487b7160e01b600052602260045260246000fd5b50919050565b6001600160a01b03868116825285166020820152604081018490526060810183905260a0608082018190526000906111c490830184610e2f565b97965050505050505056fea264697066735822122079ec36b2366a13fa661769795548863fd612a0f29a0c7554293d131c3cdc707564736f6c634300081a0033",
        "linkReferences": {}
    },
    "methodIdentifiers": {
        "addDoctor(address)": "4780468f",
        "addPharmacist(address)": "c09e2693",
        "approvePrescription(uint256)": "2a9447f8",
        "burnPrescription(uint256,uint256)": "8100a2c9",
        "checkPrescriptionState(uint256)": "3556a75c",
        "deliverPrescription(uint256)": "dc0fa409",
        "doctors(address)": "a9583c22",
        "mintPrescriptionTokens(uint256,uint256,bytes)": "4b4012e3",
        "onERC1155BatchReceived(address,address,uint256[],uint256[],bytes)": "bc197c81",
        "onERC1155Received(address,address,uint256,uint256,bytes)": "f23a6e61",
        "owner()": "8da5cb5b",
        "pharmacists(address)": "1abf575a",
        "pharmacyIdentifier()": "5e3f5b97",
        "prescriptionToken()": "9652d4ab",
        "proposePrescription(address,uint256,uint256,bytes)": "b9c0ea30",
        "rejectPrescription(address,uint256,uint256)": "9ec48d21",
        "removeDoctor(address)": "98fc90e9",
        "removePharmacist(address)": "d9c54dcd",
        "setPrescriptionToken(address)": "0c49e840",
        "supportsInterface(bytes4)": "01ffc9a7"
    },
    "id": 36
}