{
    "abi": [
        {
            "type": "constructor",
            "inputs": [
                {
                    "name": "_pharmacyIdentifier",
                    "type": "string",
                    "internalType": "string"
                }
            ],
            "stateMutability": "nonpayable"
        },
        {
            "type": "function",
            "name": "addDoctor",
            "inputs": [
                {
                    "name": "doctor",
                    "type": "address",
                    "internalType": "address"
                }
            ],
            "outputs": [],
            "stateMutability": "nonpayable"
        },
        {
            "type": "function",
            "name": "addPharmacist",
            "inputs": [
                {
                    "name": "pharmacist",
                    "type": "address",
                    "internalType": "address"
                }
            ],
            "outputs": [],
            "stateMutability": "nonpayable"
        },
        {
            "type": "function",
            "name": "approvePrescription",
            "inputs": [
                {
                    "name": "id",
                    "type": "uint256",
                    "internalType": "uint256"
                }
            ],
            "outputs": [],
            "stateMutability": "nonpayable"
        },
        {
            "type": "function",
            "name": "burnPrescription",
            "inputs": [
                {
                    "name": "id",
                    "type": "uint256",
                    "internalType": "uint256"
                },
                {
                    "name": "amount",
                    "type": "uint256",
                    "internalType": "uint256"
                }
            ],
            "outputs": [],
            "stateMutability": "nonpayable"
        },
        {
            "type": "function",
            "name": "checkPrescriptionState",
            "inputs": [
                {
                    "name": "id",
                    "type": "uint256",
                    "internalType": "uint256"
                }
            ],
            "outputs": [
                {
                    "name": "",
                    "type": "uint8",
                    "internalType": "uint8"
                }
            ],
            "stateMutability": "view"
        },
        {
            "type": "function",
            "name": "deliverPrescription",
            "inputs": [
                {
                    "name": "id",
                    "type": "uint256",
                    "internalType": "uint256"
                }
            ],
            "outputs": [],
            "stateMutability": "nonpayable"
        },
        {
            "type": "function",
            "name": "doctors",
            "inputs": [
                {
                    "name": "",
                    "type": "address",
                    "internalType": "address"
                }
            ],
            "outputs": [
                {
                    "name": "",
                    "type": "uint8",
                    "internalType": "enum PharmacyDAO.Roles"
                }
            ],
            "stateMutability": "view"
        },
        {
            "type": "function",
            "name": "mintPrescriptionTokens",
            "inputs": [
                {
                    "name": "amount",
                    "type": "uint256",
                    "internalType": "uint256"
                },
                {
                    "name": "cid",
                    "type": "bytes",
                    "internalType": "bytes"
                }
            ],
            "outputs": [],
            "stateMutability": "nonpayable"
        },
        {
            "type": "function",
            "name": "onERC1155BatchReceived",
            "inputs": [
                {
                    "name": "",
                    "type": "address",
                    "internalType": "address"
                },
                {
                    "name": "",
                    "type": "address",
                    "internalType": "address"
                },
                {
                    "name": "",
                    "type": "uint256[]",
                    "internalType": "uint256[]"
                },
                {
                    "name": "",
                    "type": "uint256[]",
                    "internalType": "uint256[]"
                },
                {
                    "name": "",
                    "type": "bytes",
                    "internalType": "bytes"
                }
            ],
            "outputs": [
                {
                    "name": "",
                    "type": "bytes4",
                    "internalType": "bytes4"
                }
            ],
            "stateMutability": "nonpayable"
        },
        {
            "type": "function",
            "name": "onERC1155Received",
            "inputs": [
                {
                    "name": "",
                    "type": "address",
                    "internalType": "address"
                },
                {
                    "name": "",
                    "type": "address",
                    "internalType": "address"
                },
                {
                    "name": "",
                    "type": "uint256",
                    "internalType": "uint256"
                },
                {
                    "name": "",
                    "type": "uint256",
                    "internalType": "uint256"
                },
                {
                    "name": "",
                    "type": "bytes",
                    "internalType": "bytes"
                }
            ],
            "outputs": [
                {
                    "name": "",
                    "type": "bytes4",
                    "internalType": "bytes4"
                }
            ],
            "stateMutability": "nonpayable"
        },
        {
            "type": "function",
            "name": "owner",
            "inputs": [],
            "outputs": [
                {
                    "name": "",
                    "type": "address",
                    "internalType": "address"
                }
            ],
            "stateMutability": "view"
        },
        {
            "type": "function",
            "name": "pharmacists",
            "inputs": [
                {
                    "name": "",
                    "type": "address",
                    "internalType": "address"
                }
            ],
            "outputs": [
                {
                    "name": "",
                    "type": "uint8",
                    "internalType": "enum PharmacyDAO.Roles"
                }
            ],
            "stateMutability": "view"
        },
        {
            "type": "function",
            "name": "pharmacyIdentifier",
            "inputs": [],
            "outputs": [
                {
                    "name": "",
                    "type": "string",
                    "internalType": "string"
                }
            ],
            "stateMutability": "view"
        },
        {
            "type": "function",
            "name": "prescriptionToken",
            "inputs": [],
            "outputs": [
                {
                    "name": "",
                    "type": "address",
                    "internalType": "contract Prescription"
                }
            ],
            "stateMutability": "view"
        },
        {
            "type": "function",
            "name": "proposePrescription",
            "inputs": [
                {
                    "name": "patient",
                    "type": "address",
                    "internalType": "address"
                },
                {
                    "name": "id",
                    "type": "uint256",
                    "internalType": "uint256"
                },
                {
                    "name": "amount",
                    "type": "uint256",
                    "internalType": "uint256"
                },
                {
                    "name": "data",
                    "type": "bytes",
                    "internalType": "bytes"
                }
            ],
            "outputs": [],
            "stateMutability": "nonpayable"
        },
        {
            "type": "function",
            "name": "rejectPrescription",
            "inputs": [
                {
                    "name": "patient",
                    "type": "address",
                    "internalType": "address"
                },
                {
                    "name": "id",
                    "type": "uint256",
                    "internalType": "uint256"
                },
                {
                    "name": "amount",
                    "type": "uint256",
                    "internalType": "uint256"
                }
            ],
            "outputs": [],
            "stateMutability": "nonpayable"
        },
        {
            "type": "function",
            "name": "removeDoctor",
            "inputs": [
                {
                    "name": "doctor",
                    "type": "address",
                    "internalType": "address"
                }
            ],
            "outputs": [],
            "stateMutability": "nonpayable"
        },
        {
            "type": "function",
            "name": "removePharmacist",
            "inputs": [
                {
                    "name": "pharmacist",
                    "type": "address",
                    "internalType": "address"
                }
            ],
            "outputs": [],
            "stateMutability": "nonpayable"
        },
        {
            "type": "function",
            "name": "setPrescriptionToken",
            "inputs": [
                {
                    "name": "_prescriptionToken",
                    "type": "address",
                    "internalType": "address"
                }
            ],
            "outputs": [],
            "stateMutability": "nonpayable"
        },
        {
            "type": "function",
            "name": "supportsInterface",
            "inputs": [
                {
                    "name": "interfaceId",
                    "type": "bytes4",
                    "internalType": "bytes4"
                }
            ],
            "outputs": [
                {
                    "name": "",
                    "type": "bool",
                    "internalType": "bool"
                }
            ],
            "stateMutability": "view"
        },
        {
            "type": "event",
            "name": "DoctorAdded",
            "inputs": [
                {
                    "name": "doctor",
                    "type": "address",
                    "indexed": false,
                    "internalType": "address"
                },
                {
                    "name": "timestamp",
                    "type": "uint256",
                    "indexed": false,
                    "internalType": "uint256"
                }
            ],
            "anonymous": false
        },
        {
            "type": "event",
            "name": "DoctorRemoved",
            "inputs": [
                {
                    "name": "doctor",
                    "type": "address",
                    "indexed": false,
                    "internalType": "address"
                },
                {
                    "name": "timestamp",
                    "type": "uint256",
                    "indexed": false,
                    "internalType": "uint256"
                }
            ],
            "anonymous": false
        },
        {
            "type": "event",
            "name": "PharmacistAdded",
            "inputs": [
                {
                    "name": "pharmacist",
                    "type": "address",
                    "indexed": false,
                    "internalType": "address"
                },
                {
                    "name": "timestamp",
                    "type": "uint256",
                    "indexed": false,
                    "internalType": "uint256"
                }
            ],
            "anonymous": false
        },
        {
            "type": "event",
            "name": "PharmacistRemoved",
            "inputs": [
                {
                    "name": "pharmacist",
                    "type": "address",
                    "indexed": false,
                    "internalType": "address"
                },
                {
                    "name": "timestamp",
                    "type": "uint256",
                    "indexed": false,
                    "internalType": "uint256"
                }
            ],
            "anonymous": false
        },
        {
            "type": "event",
            "name": "PrescriptionProposed",
            "inputs": [
                {
                    "name": "patient",
                    "type": "address",
                    "indexed": false,
                    "internalType": "address"
                },
                {
                    "name": "id",
                    "type": "uint256",
                    "indexed": false,
                    "internalType": "uint256"
                },
                {
                    "name": "timestamp",
                    "type": "uint256",
                    "indexed": false,
                    "internalType": "uint256"
                }
            ],
            "anonymous": false
        }
    ],
    "bytecode": {
        "object": "0x608060405234801561001057600080fd5b506040516114db3803806114db83398101604081905261002f9161006a565b600061003b82826101bf565b5050600280546001600160a01b0319163317905561027d565b634e487b7160e01b600052604160045260246000fd5b60006020828403121561007c57600080fd5b81516001600160401b0381111561009257600080fd5b8201601f810184136100a357600080fd5b80516001600160401b038111156100bc576100bc610054565b604051601f8201601f19908116603f011681016001600160401b03811182821017156100ea576100ea610054565b60405281815282820160200186101561010257600080fd5b60005b8281101561012157602081850181015183830182015201610105565b50600091810160200191909152949350505050565b600181811c9082168061014a57607f821691505b60208210810361016a57634e487b7160e01b600052602260045260246000fd5b50919050565b601f8211156101ba57806000526020600020601f840160051c810160208510156101975750805b601f840160051c820191505b818110156101b757600081556001016101a3565b50505b505050565b81516001600160401b038111156101d8576101d8610054565b6101ec816101e68454610136565b84610170565b6020601f82116001811461022057600083156102085750848201515b600019600385901b1c1916600184901b1784556101b7565b600084815260208120601f198516915b828110156102505787850151825560209485019460019092019101610230565b508482101561026e5786840151600019600387901b60f8161c191681555b50505050600190811b01905550565b61124f8061028c6000396000f3fe608060405234801561001057600080fd5b506004361061012c5760003560e01c806398fc90e9116100ad578063bc197c8111610071578063bc197c81146102be578063c09e2693146102f6578063d9c54dcd14610309578063dc0fa4091461031c578063f23a6e611461032f57600080fd5b806398fc90e91461024f5780639ec48d2114610262578063a6df875214610275578063a9583c2214610288578063b9c0ea30146102ab57600080fd5b80634780468f116100f45780634780468f146101d65780635e3f5b97146101e95780638100a2c9146101fe5780638da5cb5b146102115780639652d4ab1461023c57600080fd5b806301ffc9a7146101315780630c49e840146101595780631abf575a1461016e5780632a9447f81461019e5780633556a75c146101b1575b600080fd5b61014461013f366004610caa565b61034e565b60405190151581526020015b60405180910390f35b61016c610167366004610cf7565b610385565b005b61019161017c366004610cf7565b60046020526000908152604090205460ff1681565b6040516101509190610d28565b61016c6101ac366004610d50565b610400565b6101c46101bf366004610d50565b6104ba565b60405160ff9091168152602001610150565b61016c6101e4366004610cf7565b610539565b6101f16105f1565b6040516101509190610daf565b61016c61020c366004610dc2565b61067f565b600254610224906001600160a01b031681565b6040516001600160a01b039091168152602001610150565b600154610224906001600160a01b031681565b61016c61025d366004610cf7565b610740565b61016c610270366004610de4565b6107ee565b61016c610283366004610ece565b6108b8565b610191610296366004610cf7565b60036020526000908152604090205460ff1681565b61016c6102b9366004610f15565b61098a565b6102dd6102cc366004610ff9565b63bc197c8160e01b95945050505050565b6040516001600160e01b03199091168152602001610150565b61016c610304366004610cf7565b610ac6565b61016c610317366004610cf7565b610b77565b61016c61032a366004610d50565b610c21565b6102dd61033d3660046110af565b63f23a6e6160e01b95945050505050565b60006001600160e01b03198216630271189760e51b148061037f57506301ffc9a760e01b6001600160e01b03198316145b92915050565b6002546001600160a01b031633146103de5760405162461bcd60e51b815260206004820152601760248201527621b0b63632b91034b9903737ba103a34329037bbb732b960491b60448201526064015b60405180910390fd5b600180546001600160a01b0319166001600160a01b0392909216919091179055565b60023360009081526004602052604090205460ff16600381111561042657610426610d12565b148061043c57506002546001600160a01b031633145b6104585760405162461bcd60e51b81526004016103d590611108565b60015460405163055288ff60e31b8152600481018390526001600160a01b0390911690632a9447f8906024015b600060405180830381600087803b15801561049f57600080fd5b505af11580156104b3573d6000803e3d6000fd5b5050505050565b600154604051630d55a9d760e21b8152600481018390526000916001600160a01b031690633556a75c90602401602060405180830381865afa158015610504573d6000803e3d6000fd5b505050506040513d601f19601f82011682018060405250810190610528919061113f565b600281111561037f5761037f610d12565b60023360009081526004602052604090205460ff16600381111561055f5761055f610d12565b148061057557506002546001600160a01b031633145b6105915760405162461bcd60e51b81526004016103d590611108565b6001600160a01b038116600081815260036020908152604091829020805460ff19166001179055815192835242908301527f116cdc7f99f6e75498b3babd17f66a95436b0f05fc7dc8fc066a3797ab7ef27d91015b60405180910390a150565b600080546105fe90611160565b80601f016020809104026020016040519081016040528092919081815260200182805461062a90611160565b80156106775780601f1061064c57610100808354040283529160200191610677565b820191906000526020600020905b81548152906001019060200180831161065a57829003601f168201915b505050505081565b60023360009081526004602052604090205460ff1660038111156106a5576106a5610d12565b14806106bb57506002546001600160a01b031633145b6106d75760405162461bcd60e51b81526004016103d590611108565b60015460405163b390c0ab60e01b815260048101849052602481018390526001600160a01b039091169063b390c0ab90604401600060405180830381600087803b15801561072457600080fd5b505af1158015610738573d6000803e3d6000fd5b505050505050565b60023360009081526004602052604090205460ff16600381111561076657610766610d12565b148061077c57506002546001600160a01b031633145b6107985760405162461bcd60e51b81526004016103d590611108565b6001600160a01b038116600081815260036020908152604091829020805460ff19169055815192835242908301527fa71431043205949af83c925167531f16cee0dd1ccbb22460126afb0e7c12c15e91016105e6565b60023360009081526004602052604090205460ff16600381111561081457610814610d12565b148061082a57506002546001600160a01b031633145b6108465760405162461bcd60e51b81526004016103d590611108565b600154604051639ec48d2160e01b81526001600160a01b038581166004830152602482018590526044820184905290911690639ec48d2190606401600060405180830381600087803b15801561089b57600080fd5b505af11580156108af573d6000803e3d6000fd5b50505050505050565b60023360009081526004602052604090205460ff1660038111156108de576108de610d12565b14806108f457506002546001600160a01b031633145b6109105760405162461bcd60e51b81526004016103d590611108565b600154604051631b6ffa8160e31b81526001600160a01b039091169063db7fd40890610942908590859060040161119a565b6020604051808303816000875af1158015610961573d6000803e3d6000fd5b505050506040513d601f19601f8201168201806040525081019061098591906111bb565b505050565b60013360009081526003602081905260409091205460ff16908111156109b2576109b2610d12565b14806109c857506002546001600160a01b031633145b610a0d5760405162461bcd60e51b815260206004820152601660248201527521b0b63632b91034b9903737ba1030903237b1ba37b960511b60448201526064016103d5565b600154604051637921219560e11b81526001600160a01b039091169063f242432a90610a4590309088908890889088906004016111d4565b600060405180830381600087803b158015610a5f57600080fd5b505af1158015610a73573d6000803e3d6000fd5b5050604080516001600160a01b038816815260208101879052428183015290517f628c20135d0e2e68fe483043c074af7229fcdfbfb3cddeb8b4789746cdcfa30c9350908190036060019150a150505050565b60023360009081526004602052604090205460ff166003811115610aec57610aec610d12565b1480610b0257506002546001600160a01b031633145b610b1e5760405162461bcd60e51b81526004016103d590611108565b6001600160a01b038116600081815260046020908152604091829020805460ff19166002179055815192835242908301527f662665621cbfc25fd49b90560fc04a9612a9da0092ecea4522ea0360cf0e8aca91016105e6565b6002546001600160a01b03163314610bcb5760405162461bcd60e51b815260206004820152601760248201527621b0b63632b91034b9903737ba103a34329037bbb732b960491b60448201526064016103d5565b6001600160a01b038116600081815260046020908152604091829020805460ff19169055815192835242908301527fc3073282cde9994d8217a476a820ea83657bbf9b061e56ff42e57007fdf26dcc91016105e6565b60023360009081526004602052604090205460ff166003811115610c4757610c47610d12565b1480610c5d57506002546001600160a01b031633145b610c795760405162461bcd60e51b81526004016103d590611108565b60015460405163dc0fa40960e01b8152600481018390526001600160a01b039091169063dc0fa40990602401610485565b600060208284031215610cbc57600080fd5b81356001600160e01b031981168114610cd457600080fd5b9392505050565b80356001600160a01b0381168114610cf257600080fd5b919050565b600060208284031215610d0957600080fd5b610cd482610cdb565b634e487b7160e01b600052602160045260246000fd5b6020810160048310610d4a57634e487b7160e01b600052602160045260246000fd5b91905290565b600060208284031215610d6257600080fd5b5035919050565b6000815180845260005b81811015610d8f57602081850181015186830182015201610d73565b506000602082860101526020601f19601f83011685010191505092915050565b602081526000610cd46020830184610d69565b60008060408385031215610dd557600080fd5b50508035926020909101359150565b600080600060608486031215610df957600080fd5b610e0284610cdb565b95602085013595506040909401359392505050565b634e487b7160e01b600052604160045260246000fd5b604051601f8201601f1916810167ffffffffffffffff81118282101715610e5657610e56610e17565b604052919050565b600082601f830112610e6f57600080fd5b813567ffffffffffffffff811115610e8957610e89610e17565b610e9c601f8201601f1916602001610e2d565b818152846020838601011115610eb157600080fd5b816020850160208301376000918101602001919091529392505050565b60008060408385031215610ee157600080fd5b82359150602083013567ffffffffffffffff811115610eff57600080fd5b610f0b85828601610e5e565b9150509250929050565b60008060008060808587031215610f2b57600080fd5b610f3485610cdb565b93506020850135925060408501359150606085013567ffffffffffffffff811115610f5e57600080fd5b610f6a87828801610e5e565b91505092959194509250565b600082601f830112610f8757600080fd5b813567ffffffffffffffff811115610fa157610fa1610e17565b8060051b610fb160208201610e2d565b91825260208185018101929081019086841115610fcd57600080fd5b6020860192505b83831015610fef578235825260209283019290910190610fd4565b9695505050505050565b600080600080600060a0868803121561101157600080fd5b61101a86610cdb565b945061102860208701610cdb565b9350604086013567ffffffffffffffff81111561104457600080fd5b61105088828901610f76565b935050606086013567ffffffffffffffff81111561106d57600080fd5b61107988828901610f76565b925050608086013567ffffffffffffffff81111561109657600080fd5b6110a288828901610e5e565b9150509295509295909350565b600080600080600060a086880312156110c757600080fd5b6110d086610cdb565b94506110de60208701610cdb565b93506040860135925060608601359150608086013567ffffffffffffffff81111561109657600080fd5b6020808252601a908201527f43616c6c6572206973206e6f74206120706861726d6163697374000000000000604082015260600190565b60006020828403121561115157600080fd5b815160038110610cd457600080fd5b600181811c9082168061117457607f821691505b60208210810361119457634e487b7160e01b600052602260045260246000fd5b50919050565b8281526040602082015260006111b36040830184610d69565b949350505050565b6000602082840312156111cd57600080fd5b5051919050565b6001600160a01b03868116825285166020820152604081018490526060810183905260a06080820181905260009061120e90830184610d69565b97965050505050505056fea264697066735822122085cfedaeef0001978d5753a5aa57034a89d16707dad856582cae22ff2a98da8564736f6c634300081a0033",
        "linkReferences": {}
    },
    "methodIdentifiers": {
        "addDoctor(address)": "4780468f",
        "addPharmacist(address)": "c09e2693",
        "approvePrescription(uint256)": "2a9447f8",
        "burnPrescription(uint256,uint256)": "8100a2c9",
        "checkPrescriptionState(uint256)": "3556a75c",
        "deliverPrescription(uint256)": "dc0fa409",
        "doctors(address)": "a9583c22",
        "mintPrescriptionTokens(uint256,bytes)": "a6df8752",
        "onERC1155BatchReceived(address,address,uint256[],uint256[],bytes)": "bc197c81",
        "onERC1155Received(address,address,uint256,uint256,bytes)": "f23a6e61",
        "owner()": "8da5cb5b",
        "pharmacists(address)": "1abf575a",
        "pharmacyIdentifier()": "5e3f5b97",
        "prescriptionToken()": "9652d4ab",
        "proposePrescription(address,uint256,uint256,bytes)": "b9c0ea30",
        "rejectPrescription(address,uint256,uint256)": "9ec48d21",
        "removeDoctor(address)": "98fc90e9",
        "removePharmacist(address)": "d9c54dcd",
        "setPrescriptionToken(address)": "0c49e840",
        "supportsInterface(bytes4)": "01ffc9a7"
    },
    "id": 38
}