{
    "abi": [
        {
            "type": "constructor",
            "inputs": [
                {
                    "name": "pharmacyDAO",
                    "type": "address",
                    "internalType": "address"
                }
            ],
            "stateMutability": "nonpayable"
        },
        {
            "type": "function",
            "name": "approvePrescription",
            "inputs": [
                {
                    "name": "id",
                    "type": "uint256",
                    "internalType": "uint256"
                }
            ],
            "outputs": [],
            "stateMutability": "nonpayable"
        },
        {
            "type": "function",
            "name": "balanceOf",
            "inputs": [
                {
                    "name": "account",
                    "type": "address",
                    "internalType": "address"
                },
                {
                    "name": "id",
                    "type": "uint256",
                    "internalType": "uint256"
                }
            ],
            "outputs": [
                {
                    "name": "",
                    "type": "uint256",
                    "internalType": "uint256"
                }
            ],
            "stateMutability": "view"
        },
        {
            "type": "function",
            "name": "balanceOfBatch",
            "inputs": [
                {
                    "name": "accounts",
                    "type": "address[]",
                    "internalType": "address[]"
                },
                {
                    "name": "ids",
                    "type": "uint256[]",
                    "internalType": "uint256[]"
                }
            ],
            "outputs": [
                {
                    "name": "",
                    "type": "uint256[]",
                    "internalType": "uint256[]"
                }
            ],
            "stateMutability": "view"
        },
        {
            "type": "function",
            "name": "burn",
            "inputs": [
                {
                    "name": "id",
                    "type": "uint256",
                    "internalType": "uint256"
                },
                {
                    "name": "amount",
                    "type": "uint256",
                    "internalType": "uint256"
                }
            ],
            "outputs": [],
            "stateMutability": "nonpayable"
        },
        {
            "type": "function",
            "name": "checkPrescriptionState",
            "inputs": [
                {
                    "name": "id",
                    "type": "uint256",
                    "internalType": "uint256"
                }
            ],
            "outputs": [
                {
                    "name": "",
                    "type": "uint8",
                    "internalType": "enum Prescription.PrescriptionState"
                }
            ],
            "stateMutability": "view"
        },
        {
            "type": "function",
            "name": "deliverPrescription",
            "inputs": [
                {
                    "name": "id",
                    "type": "uint256",
                    "internalType": "uint256"
                }
            ],
            "outputs": [],
            "stateMutability": "nonpayable"
        },
        {
            "type": "function",
            "name": "isApprovedForAll",
            "inputs": [
                {
                    "name": "account",
                    "type": "address",
                    "internalType": "address"
                },
                {
                    "name": "operator",
                    "type": "address",
                    "internalType": "address"
                }
            ],
            "outputs": [
                {
                    "name": "",
                    "type": "bool",
                    "internalType": "bool"
                }
            ],
            "stateMutability": "view"
        },
        {
            "type": "function",
            "name": "mint",
            "inputs": [
                {
                    "name": "id",
                    "type": "uint256",
                    "internalType": "uint256"
                },
                {
                    "name": "amount",
                    "type": "uint256",
                    "internalType": "uint256"
                },
                {
                    "name": "cid",
                    "type": "bytes",
                    "internalType": "bytes"
                }
            ],
            "outputs": [],
            "stateMutability": "nonpayable"
        },
        {
            "type": "function",
            "name": "owner",
            "inputs": [],
            "outputs": [
                {
                    "name": "",
                    "type": "address",
                    "internalType": "address"
                }
            ],
            "stateMutability": "view"
        },
        {
            "type": "function",
            "name": "prescriptionState",
            "inputs": [
                {
                    "name": "",
                    "type": "uint256",
                    "internalType": "uint256"
                }
            ],
            "outputs": [
                {
                    "name": "",
                    "type": "uint8",
                    "internalType": "enum Prescription.PrescriptionState"
                }
            ],
            "stateMutability": "view"
        },
        {
            "type": "function",
            "name": "rejectPrescription",
            "inputs": [
                {
                    "name": "patient",
                    "type": "address",
                    "internalType": "address"
                },
                {
                    "name": "id",
                    "type": "uint256",
                    "internalType": "uint256"
                },
                {
                    "name": "amount",
                    "type": "uint256",
                    "internalType": "uint256"
                }
            ],
            "outputs": [],
            "stateMutability": "nonpayable"
        },
        {
            "type": "function",
            "name": "renounceOwnership",
            "inputs": [],
            "outputs": [],
            "stateMutability": "nonpayable"
        },
        {
            "type": "function",
            "name": "safeBatchTransferFrom",
            "inputs": [
                {
                    "name": "from",
                    "type": "address",
                    "internalType": "address"
                },
                {
                    "name": "to",
                    "type": "address",
                    "internalType": "address"
                },
                {
                    "name": "ids",
                    "type": "uint256[]",
                    "internalType": "uint256[]"
                },
                {
                    "name": "values",
                    "type": "uint256[]",
                    "internalType": "uint256[]"
                },
                {
                    "name": "data",
                    "type": "bytes",
                    "internalType": "bytes"
                }
            ],
            "outputs": [],
            "stateMutability": "nonpayable"
        },
        {
            "type": "function",
            "name": "safeTransferFrom",
            "inputs": [
                {
                    "name": "from",
                    "type": "address",
                    "internalType": "address"
                },
                {
                    "name": "to",
                    "type": "address",
                    "internalType": "address"
                },
                {
                    "name": "id",
                    "type": "uint256",
                    "internalType": "uint256"
                },
                {
                    "name": "value",
                    "type": "uint256",
                    "internalType": "uint256"
                },
                {
                    "name": "data",
                    "type": "bytes",
                    "internalType": "bytes"
                }
            ],
            "outputs": [],
            "stateMutability": "nonpayable"
        },
        {
            "type": "function",
            "name": "setApprovalForAll",
            "inputs": [
                {
                    "name": "operator",
                    "type": "address",
                    "internalType": "address"
                },
                {
                    "name": "approved",
                    "type": "bool",
                    "internalType": "bool"
                }
            ],
            "outputs": [],
            "stateMutability": "nonpayable"
        },
        {
            "type": "function",
            "name": "supportsInterface",
            "inputs": [
                {
                    "name": "interfaceId",
                    "type": "bytes4",
                    "internalType": "bytes4"
                }
            ],
            "outputs": [
                {
                    "name": "",
                    "type": "bool",
                    "internalType": "bool"
                }
            ],
            "stateMutability": "view"
        },
        {
            "type": "function",
            "name": "transferOwnership",
            "inputs": [
                {
                    "name": "newOwner",
                    "type": "address",
                    "internalType": "address"
                }
            ],
            "outputs": [],
            "stateMutability": "nonpayable"
        },
        {
            "type": "function",
            "name": "uri",
            "inputs": [
                {
                    "name": "",
                    "type": "uint256",
                    "internalType": "uint256"
                }
            ],
            "outputs": [
                {
                    "name": "",
                    "type": "string",
                    "internalType": "string"
                }
            ],
            "stateMutability": "view"
        },
        {
            "type": "event",
            "name": "ApprovalForAll",
            "inputs": [
                {
                    "name": "account",
                    "type": "address",
                    "indexed": true,
                    "internalType": "address"
                },
                {
                    "name": "operator",
                    "type": "address",
                    "indexed": true,
                    "internalType": "address"
                },
                {
                    "name": "approved",
                    "type": "bool",
                    "indexed": false,
                    "internalType": "bool"
                }
            ],
            "anonymous": false
        },
        {
            "type": "event",
            "name": "Burned",
            "inputs": [
                {
                    "name": "id",
                    "type": "uint256",
                    "indexed": true,
                    "internalType": "uint256"
                },
                {
                    "name": "amount",
                    "type": "uint256",
                    "indexed": false,
                    "internalType": "uint256"
                },
                {
                    "name": "timestamp",
                    "type": "uint256",
                    "indexed": false,
                    "internalType": "uint256"
                }
            ],
            "anonymous": false
        },
        {
            "type": "event",
            "name": "Minted",
            "inputs": [
                {
                    "name": "id",
                    "type": "uint256",
                    "indexed": true,
                    "internalType": "uint256"
                },
                {
                    "name": "amount",
                    "type": "uint256",
                    "indexed": false,
                    "internalType": "uint256"
                },
                {
                    "name": "timestamp",
                    "type": "uint256",
                    "indexed": false,
                    "internalType": "uint256"
                }
            ],
            "anonymous": false
        },
        {
            "type": "event",
            "name": "OwnershipTransferred",
            "inputs": [
                {
                    "name": "previousOwner",
                    "type": "address",
                    "indexed": true,
                    "internalType": "address"
                },
                {
                    "name": "newOwner",
                    "type": "address",
                    "indexed": true,
                    "internalType": "address"
                }
            ],
            "anonymous": false
        },
        {
            "type": "event",
            "name": "PrescriptionApproved",
            "inputs": [
                {
                    "name": "id",
                    "type": "uint256",
                    "indexed": true,
                    "internalType": "uint256"
                },
                {
                    "name": "timestamp",
                    "type": "uint256",
                    "indexed": false,
                    "internalType": "uint256"
                }
            ],
            "anonymous": false
        },
        {
            "type": "event",
            "name": "PrescriptionDelivered",
            "inputs": [
                {
                    "name": "id",
                    "type": "uint256",
                    "indexed": true,
                    "internalType": "uint256"
                },
                {
                    "name": "timestamp",
                    "type": "uint256",
                    "indexed": false,
                    "internalType": "uint256"
                }
            ],
            "anonymous": false
        },
        {
            "type": "event",
            "name": "PrescriptionRejected",
            "inputs": [
                {
                    "name": "id",
                    "type": "uint256",
                    "indexed": true,
                    "internalType": "uint256"
                },
                {
                    "name": "amount",
                    "type": "uint256",
                    "indexed": false,
                    "internalType": "uint256"
                },
                {
                    "name": "timestamp",
                    "type": "uint256",
                    "indexed": false,
                    "internalType": "uint256"
                }
            ],
            "anonymous": false
        },
        {
            "type": "event",
            "name": "TransferBatch",
            "inputs": [
                {
                    "name": "operator",
                    "type": "address",
                    "indexed": true,
                    "internalType": "address"
                },
                {
                    "name": "from",
                    "type": "address",
                    "indexed": true,
                    "internalType": "address"
                },
                {
                    "name": "to",
                    "type": "address",
                    "indexed": true,
                    "internalType": "address"
                },
                {
                    "name": "ids",
                    "type": "uint256[]",
                    "indexed": false,
                    "internalType": "uint256[]"
                },
                {
                    "name": "values",
                    "type": "uint256[]",
                    "indexed": false,
                    "internalType": "uint256[]"
                }
            ],
            "anonymous": false
        },
        {
            "type": "event",
            "name": "TransferSingle",
            "inputs": [
                {
                    "name": "operator",
                    "type": "address",
                    "indexed": true,
                    "internalType": "address"
                },
                {
                    "name": "from",
                    "type": "address",
                    "indexed": true,
                    "internalType": "address"
                },
                {
                    "name": "to",
                    "type": "address",
                    "indexed": true,
                    "internalType": "address"
                },
                {
                    "name": "id",
                    "type": "uint256",
                    "indexed": false,
                    "internalType": "uint256"
                },
                {
                    "name": "value",
                    "type": "uint256",
                    "indexed": false,
                    "internalType": "uint256"
                }
            ],
            "anonymous": false
        },
        {
            "type": "event",
            "name": "URI",
            "inputs": [
                {
                    "name": "value",
                    "type": "string",
                    "indexed": false,
                    "internalType": "string"
                },
                {
                    "name": "id",
                    "type": "uint256",
                    "indexed": true,
                    "internalType": "uint256"
                }
            ],
            "anonymous": false
        },
        {
            "type": "error",
            "name": "ERC1155InsufficientBalance",
            "inputs": [
                {
                    "name": "sender",
                    "type": "address",
                    "internalType": "address"
                },
                {
                    "name": "balance",
                    "type": "uint256",
                    "internalType": "uint256"
                },
                {
                    "name": "needed",
                    "type": "uint256",
                    "internalType": "uint256"
                },
                {
                    "name": "tokenId",
                    "type": "uint256",
                    "internalType": "uint256"
                }
            ]
        },
        {
            "type": "error",
            "name": "ERC1155InvalidApprover",
            "inputs": [
                {
                    "name": "approver",
                    "type": "address",
                    "internalType": "address"
                }
            ]
        },
        {
            "type": "error",
            "name": "ERC1155InvalidArrayLength",
            "inputs": [
                {
                    "name": "idsLength",
                    "type": "uint256",
                    "internalType": "uint256"
                },
                {
                    "name": "valuesLength",
                    "type": "uint256",
                    "internalType": "uint256"
                }
            ]
        },
        {
            "type": "error",
            "name": "ERC1155InvalidOperator",
            "inputs": [
                {
                    "name": "operator",
                    "type": "address",
                    "internalType": "address"
                }
            ]
        },
        {
            "type": "error",
            "name": "ERC1155InvalidReceiver",
            "inputs": [
                {
                    "name": "receiver",
                    "type": "address",
                    "internalType": "address"
                }
            ]
        },
        {
            "type": "error",
            "name": "ERC1155InvalidSender",
            "inputs": [
                {
                    "name": "sender",
                    "type": "address",
                    "internalType": "address"
                }
            ]
        },
        {
            "type": "error",
            "name": "ERC1155MissingApprovalForAll",
            "inputs": [
                {
                    "name": "operator",
                    "type": "address",
                    "internalType": "address"
                },
                {
                    "name": "owner",
                    "type": "address",
                    "internalType": "address"
                }
            ]
        },
        {
            "type": "error",
            "name": "OwnableInvalidOwner",
            "inputs": [
                {
                    "name": "owner",
                    "type": "address",
                    "internalType": "address"
                }
            ]
        },
        {
            "type": "error",
            "name": "OwnableUnauthorizedAccount",
            "inputs": [
                {
                    "name": "account",
                    "type": "address",
                    "internalType": "address"
                }
            ]
        }
    ],
    "bytecode": {
        "object": "0x608060405234801561001057600080fd5b50604051611a92380380611a9283398101604081905261002f916100ea565b604080516020810190915260008152819061004981610088565b506001600160a01b03811661007857604051631e4fbdf760e01b81526000600482015260240160405180910390fd5b61008181610098565b5050610277565b600261009482826101b9565b5050565b600380546001600160a01b038381166001600160a01b0319831681179093556040519116919082907f8be0079c531659141344cd1fd0a4f28419497f9722a3daafe3b4186f6b6457e090600090a35050565b6000602082840312156100fc57600080fd5b81516001600160a01b038116811461011357600080fd5b9392505050565b634e487b7160e01b600052604160045260246000fd5b600181811c9082168061014457607f821691505b60208210810361016457634e487b7160e01b600052602260045260246000fd5b50919050565b601f8211156101b457806000526020600020601f840160051c810160208510156101915750805b601f840160051c820191505b818110156101b1576000815560010161019d565b50505b505050565b81516001600160401b038111156101d2576101d261011a565b6101e6816101e08454610130565b8461016a565b6020601f82116001811461021a57600083156102025750848201515b600019600385901b1c1916600184901b1784556101b1565b600084815260208120601f198516915b8281101561024a578785015182556020948501946001909201910161022a565b50848210156102685786840151600019600387901b60f8161c191681555b50505050600190811b01905550565b61180c806102866000396000f3fe608060405234801561001057600080fd5b50600436106101155760003560e01c80637cb71608116100a2578063b390c0ab11610071578063b390c0ab1461026a578063dc0fa4091461027d578063e985e9c514610290578063f242432a146102a3578063f2fde38b146102b657600080fd5b80637cb71608146102065780638da5cb5b146102295780639ec48d2114610244578063a22cb4651461025757600080fd5b80632a9447f8116100e95780632a9447f8146101985780632eb2c2d6146101ab5780633556a75c146101be5780634e1273f4146101de578063715018a6146101fe57600080fd5b8062fdd58e1461011a57806301ffc9a71461014057806308dc9f42146101635780630e89341c14610178575b600080fd5b61012d6101283660046110c5565b6102c9565b6040519081526020015b60405180910390f35b61015361014e366004611105565b6102f1565b6040519015158152602001610137565b6101766101713660046111e0565b610341565b005b61018b610186366004611230565b6103c2565b604051610137919061128f565b6101766101a6366004611230565b610456565b6101766101b9366004611333565b610526565b6101d16101cc366004611230565b61058d565b60405161013791906113ff565b6101f16101ec366004611427565b6105b0565b604051610137919061152c565b61017661067d565b6101d1610214366004611230565b60046020526000908152604090205460ff1681565b6003546040516001600160a01b039091168152602001610137565b61017661025236600461153f565b610691565b610176610265366004611572565b61076d565b6101766102783660046115ae565b61077c565b61017661028b366004611230565b6107de565b61015361029e3660046115d0565b6108a4565b6101766102b1366004611603565b6108d2565b6101766102c436600461165c565b610931565b6000818152602081815260408083206001600160a01b03861684529091529020545b92915050565b60006001600160e01b03198216636cdb3d1360e11b148061032257506001600160e01b031982166303a24d0760e21b145b806102eb57506301ffc9a760e01b6001600160e01b03198316146102eb565b61034961096f565b61036661035e6003546001600160a01b031690565b84848461099c565b6000838152600460205260408120805460ff191660018302179055506040805183815242602082015284917f488bbf7ce8682b98371a0bb07d4e838ce2e533a907ceda8ac6ee658fdbd162e091015b60405180910390a2505050565b6060600280546103d190611677565b80601f01602080910402602001604051908101604052809291908181526020018280546103fd90611677565b801561044a5780601f1061041f5761010080835404028352916020019161044a565b820191906000526020600020905b81548152906001019060200180831161042d57829003601f168201915b50505050509050919050565b61045e61096f565b60008181526004602052604081205460ff166002811115610481576104816113e9565b146104d35760405162461bcd60e51b815260206004820152601b60248201527f507265736372697074696f6e206973206e6f742070656e64696e67000000000060448201526064015b60405180910390fd5b600081815260046020908152604091829020805460ff19166001179055905142815282917fd669f0ca10d7081f14868057639fd26337f1575cebd819015a25597dd6cb5c4091015b60405180910390a250565b336001600160a01b0386168114801590610547575061054586826108a4565b155b156105785760405163711bec9160e11b81526001600160a01b038083166004830152871660248201526044016104ca565b61058586868686866109f9565b505050505050565b600061059761096f565b5060008181526004602052604090205460ff165b919050565b606081518351146105e15781518351604051635b05999160e01b8152600481019290925260248201526044016104ca565b6000835167ffffffffffffffff8111156105fd576105fd611129565b604051908082528060200260200182016040528015610626578160200160208202803683370190505b50905060005b845181101561067557602080820286010151610650906020808402870101516102c9565b828281518110610662576106626116b1565b602090810291909101015260010161062c565b509392505050565b61068561096f565b61068f6000610a60565b565b61069961096f565b60008281526004602052604081205460ff1660028111156106bc576106bc6113e9565b146107095760405162461bcd60e51b815260206004820152601b60248201527f507265736372697074696f6e206973206e6f742070656e64696e67000000000060448201526064016104ca565b6107368361071f6003546001600160a01b031690565b848460405180602001604052806000815250610ab2565b6040805182815242602082015283917f7bf76054ad12c53f22dadad5076fe24a0a43497049e466c36a4b3d0c4492510a91016103b5565b610778338383610b40565b5050565b61078461096f565b6107a06107996003546001600160a01b031690565b8383610bd6565b6040805182815242602082015283917f82ac44fe03cbf84203fdc07400a8a763498cf2ccaa9788e23b09d56f4fc85f72910160405180910390a25050565b6107e661096f565b600160008281526004602052604090205460ff16600281111561080b5761080b6113e9565b146108585760405162461bcd60e51b815260206004820152601c60248201527f507265736372697074696f6e206973206e6f7420617070726f7665640000000060448201526064016104ca565b600081815260046020908152604091829020805460ff19166002179055905142815282917f4266b2d7b2e553cc40fea17a77005663a254bd0fd97124b5c72125ad31186c2c910161051b565b6001600160a01b03918216600090815260016020908152604080832093909416825291909152205460ff1690565b336001600160a01b03861681148015906108f357506108f186826108a4565b155b156109245760405163711bec9160e11b81526001600160a01b038083166004830152871660248201526044016104ca565b6105858686868686610ab2565b61093961096f565b6001600160a01b03811661096357604051631e4fbdf760e01b8152600060048201526024016104ca565b61096c81610a60565b50565b6003546001600160a01b0316331461068f5760405163118cdaa760e01b81523360048201526024016104ca565b6001600160a01b0384166109c657604051632bfa23e760e11b8152600060048201526024016104ca565b60408051600180825260208201869052818301908152606082018590526080820190925290610585600087848487610c3a565b6001600160a01b038416610a2357604051632bfa23e760e11b8152600060048201526024016104ca565b6001600160a01b038516610a4c57604051626a0d4560e21b8152600060048201526024016104ca565b610a598585858585610c3a565b5050505050565b600380546001600160a01b038381166001600160a01b0319831681179093556040519116919082907f8be0079c531659141344cd1fd0a4f28419497f9722a3daafe3b4186f6b6457e090600090a35050565b6001600160a01b038416610adc57604051632bfa23e760e11b8152600060048201526024016104ca565b6001600160a01b038516610b0557604051626a0d4560e21b8152600060048201526024016104ca565b60408051600180825260208201869052818301908152606082018590526080820190925290610b378787848487610c3a565b50505050505050565b6001600160a01b038216610b695760405162ced3e160e81b8152600060048201526024016104ca565b6001600160a01b03838116600081815260016020908152604080832094871680845294825291829020805460ff191686151590811790915591519182527f17307eab39ab6107e8899845ad3d59bd9653f200f220920489ca2b5937696c31910160405180910390a3505050565b6001600160a01b038316610bff57604051626a0d4560e21b8152600060048201526024016104ca565b604080516001808252602082018590528183019081526060820184905260a08201909252600060808201818152919291610a59918791859085905b610c4685858585610c8d565b6001600160a01b03841615610a595782513390600103610c7f5760208481015190840151610c78838989858589610ea1565b5050610585565b610585818787878787610fc5565b8051825114610cbc5781518151604051635b05999160e01b8152600481019290925260248201526044016104ca565b3360005b8351811015610dc2576020818102858101820151908501909101516001600160a01b03881615610d73576000828152602081815260408083206001600160a01b038c16845290915290205481811015610d4c576040516303dee4c560e01b81526001600160a01b038a1660048201526024810182905260448101839052606481018490526084016104ca565b6000838152602081815260408083206001600160a01b038d16845290915290209082900390555b6001600160a01b03871615610db8576000828152602081815260408083206001600160a01b038b16845290915281208054839290610db29084906116c7565b90915550505b5050600101610cc0565b508251600103610e435760208301516000906020840151909150856001600160a01b0316876001600160a01b0316846001600160a01b03167fc3d58168c5ae7397731d063d5bbf3d657854427343f4c083240f7aacaa2d0f628585604051610e34929190918252602082015260400190565b60405180910390a45050610a59565b836001600160a01b0316856001600160a01b0316826001600160a01b03167f4a39dc06d4c0dbc64b70af90fd698a233a518aa5d07e595d983b8c0526c8f7fb8686604051610e929291906116e8565b60405180910390a45050505050565b6001600160a01b0384163b156105855760405163f23a6e6160e01b81526001600160a01b0385169063f23a6e6190610ee59089908990889088908890600401611716565b6020604051808303816000875af1925050508015610f20575060408051601f3d908101601f19168201909252610f1d9181019061175b565b60015b610f89573d808015610f4e576040519150601f19603f3d011682016040523d82523d6000602084013e610f53565b606091505b508051600003610f8157604051632bfa23e760e11b81526001600160a01b03861660048201526024016104ca565b805181602001fd5b6001600160e01b0319811663f23a6e6160e01b14610b3757604051632bfa23e760e11b81526001600160a01b03861660048201526024016104ca565b6001600160a01b0384163b156105855760405163bc197c8160e01b81526001600160a01b0385169063bc197c81906110099089908990889088908890600401611778565b6020604051808303816000875af1925050508015611044575060408051601f3d908101601f191682019092526110419181019061175b565b60015b611072573d808015610f4e576040519150601f19603f3d011682016040523d82523d6000602084013e610f53565b6001600160e01b0319811663bc197c8160e01b14610b3757604051632bfa23e760e11b81526001600160a01b03861660048201526024016104ca565b80356001600160a01b03811681146105ab57600080fd5b600080604083850312156110d857600080fd5b6110e1836110ae565b946020939093013593505050565b6001600160e01b03198116811461096c57600080fd5b60006020828403121561111757600080fd5b8135611122816110ef565b9392505050565b634e487b7160e01b600052604160045260246000fd5b604051601f8201601f1916810167ffffffffffffffff8111828210171561116857611168611129565b604052919050565b600082601f83011261118157600080fd5b813567ffffffffffffffff81111561119b5761119b611129565b6111ae601f8201601f191660200161113f565b8181528460208386010111156111c357600080fd5b816020850160208301376000918101602001919091529392505050565b6000806000606084860312156111f557600080fd5b8335925060208401359150604084013567ffffffffffffffff81111561121a57600080fd5b61122686828701611170565b9150509250925092565b60006020828403121561124257600080fd5b5035919050565b6000815180845260005b8181101561126f57602081850181015186830182015201611253565b506000602082860101526020601f19601f83011685010191505092915050565b6020815260006111226020830184611249565b600067ffffffffffffffff8211156112bc576112bc611129565b5060051b60200190565b600082601f8301126112d757600080fd5b81356112ea6112e5826112a2565b61113f565b8082825260208201915060208360051b86010192508583111561130c57600080fd5b602085015b83811015611329578035835260209283019201611311565b5095945050505050565b600080600080600060a0868803121561134b57600080fd5b611354866110ae565b9450611362602087016110ae565b9350604086013567ffffffffffffffff81111561137e57600080fd5b61138a888289016112c6565b935050606086013567ffffffffffffffff8111156113a757600080fd5b6113b3888289016112c6565b925050608086013567ffffffffffffffff8111156113d057600080fd5b6113dc88828901611170565b9150509295509295909350565b634e487b7160e01b600052602160045260246000fd5b602081016003831061142157634e487b7160e01b600052602160045260246000fd5b91905290565b6000806040838503121561143a57600080fd5b823567ffffffffffffffff81111561145157600080fd5b8301601f8101851361146257600080fd5b80356114706112e5826112a2565b8082825260208201915060208360051b85010192508783111561149257600080fd5b6020840193505b828410156114bb576114aa846110ae565b825260209384019390910190611499565b9450505050602083013567ffffffffffffffff8111156114da57600080fd5b6114e6858286016112c6565b9150509250929050565b600081518084526020840193506020830160005b82811015611522578151865260209586019590910190600101611504565b5093949350505050565b60208152600061112260208301846114f0565b60008060006060848603121561155457600080fd5b61155d846110ae565b95602085013595506040909401359392505050565b6000806040838503121561158557600080fd5b61158e836110ae565b9150602083013580151581146115a357600080fd5b809150509250929050565b600080604083850312156115c157600080fd5b50508035926020909101359150565b600080604083850312156115e357600080fd5b6115ec836110ae565b91506115fa602084016110ae565b90509250929050565b600080600080600060a0868803121561161b57600080fd5b611624866110ae565b9450611632602087016110ae565b93506040860135925060608601359150608086013567ffffffffffffffff8111156113d057600080fd5b60006020828403121561166e57600080fd5b611122826110ae565b600181811c9082168061168b57607f821691505b6020821081036116ab57634e487b7160e01b600052602260045260246000fd5b50919050565b634e487b7160e01b600052603260045260246000fd5b808201808211156102eb57634e487b7160e01b600052601160045260246000fd5b6040815260006116fb60408301856114f0565b828103602084015261170d81856114f0565b95945050505050565b6001600160a01b03868116825285166020820152604081018490526060810183905260a06080820181905260009061175090830184611249565b979650505050505050565b60006020828403121561176d57600080fd5b8151611122816110ef565b6001600160a01b0386811682528516602082015260a0604082018190526000906117a4908301866114f0565b82810360608401526117b681866114f0565b905082810360808401526117ca8185611249565b9897505050505050505056fea2646970667358221220c089af6b0029fa0024a1126e47469518b156dc800071b9970b0709c240da068964736f6c634300081a0033",
        "linkReferences": {}
    },
    "methodIdentifiers": {
        "approvePrescription(uint256)": "2a9447f8",
        "balanceOf(address,uint256)": "00fdd58e",
        "balanceOfBatch(address[],uint256[])": "4e1273f4",
        "burn(uint256,uint256)": "b390c0ab",
        "checkPrescriptionState(uint256)": "3556a75c",
        "deliverPrescription(uint256)": "dc0fa409",
        "isApprovedForAll(address,address)": "e985e9c5",
        "mint(uint256,uint256,bytes)": "08dc9f42",
        "owner()": "8da5cb5b",
        "prescriptionState(uint256)": "7cb71608",
        "rejectPrescription(address,uint256,uint256)": "9ec48d21",
        "renounceOwnership()": "715018a6",
        "safeBatchTransferFrom(address,address,uint256[],uint256[],bytes)": "2eb2c2d6",
        "safeTransferFrom(address,address,uint256,uint256,bytes)": "f242432a",
        "setApprovalForAll(address,bool)": "a22cb465",
        "supportsInterface(bytes4)": "01ffc9a7",
        "transferOwnership(address)": "f2fde38b",
        "uri(uint256)": "0e89341c"
    },
    "id": 39
}